:020000040800F2
:1000000030340020010100081F0A0008170A000808
:100010001B0A0008CF0800080710000800000000B5
:10002000000000000000000000000000F10B0008CC
:10003000D308000800000000F90A0008DD0C0008E1
:100040001B0100081B0100081B0100081B01000820
:100050001B0100081B0100081B0100081B01000810
:100060001B0100081B0100081B0100081B01000800
:100070001B0100081B0100081B0100081B010008F0
:100080001B0100081B0100081B0100081B010008E0
:100090001B0100081B0100081B0100081B010008D0
:1000A0001B0100081B0100081B0100081B010008C0
:1000B0001B0100081B0100081B0100081B010008B0
:1000C0001B0100081B0100081B0100081B010008A0
:1000D0001B010008DD0D00081B0100081B010008C2
:1000E0001B0100081B0100081B010008DFF80CD0F1
:1000F00000F05CFA00480047591400083034002032
:100100000648804706480047FEE7FEE7FEE7FEE7B1
:10011000FEE7FEE7FEE7FEE7FEE7FEE7E10C00088C
:10012000ED00000830B505460020034600E05B1CEA
:10013000934205D2EC5CC85C201A01D1002CF6D1A8
:1001400030BDF0B480EA0102D40F4200B2EB410F9F
:1001500002D20246084611464A0042D0C30DDDB223
:10016000C1F3C752AD1A202D35DAC1F3160141F49F
:10017000000204B15242C5F1200602FA06F12A41FA
:100180001044B3EBD05F23D0C4B1012DA0EBC3501A
:1001900009DCF0BC4FF0004202EAC352DBB200F5CA
:1001A000000000F078B9400000F1807000EBC3500F
:1001B000A0F1807040EAD170490009E0490841EAA5
:1001C000C071A0EBC35000F50000400800EBC35025
:1001D000F0BC00F057B96142012202EB4101001B63
:1001E000F6E7F0BC704781F00041AAE780F00040DC
:1001F000A7E780EA010210B502F00043400022D0D8
:100200004A001FD0010E01EB1261C0F35600C2F389
:10021000560240F4000042F40002A0FB0220000459
:100220007F39140400D0401C50EA124001D4400031
:10023000491EC2B20C0604EBD010401C4008802AB4
:1002400002D003E0002010BD20F00100002900DAF8
:100250000020184310BD30B480EA010202F00045CE
:1002600030F0004221F0004013D090B1C30DD40D06
:10027000C2F31601C0F31600E41A41F4000140F481
:1002800000027D34914201D3641C00E04900002C3F
:1002900002DA30BC002070474FF400000023914286
:1002A00001D3891A034340084FEA4101F7D151B104
:1002B000914202D14FF0004105E002D24FF001011E
:1002C00001E06FF0010103EBC450284430BC00F0A2
:1002D000D9B82DE9FE4F81EA030404F0004421F06F
:1002E000004100944FF0000B23F0004350EA01045A
:1002F0005ED052EA03045BD0C3F30A54C1F30A553B
:100300002C44A4F2F3340194A0FB0254C1F3130172
:1003100041F48011C3F3130343F4801301FB02443F
:1003200000FB034E840A970A44EA815447EA835744
:10033000A4FB076802958D0A05FB07854FEA932CFD
:1003400004FB0C542705029D4FEA065847EA16376E
:10035000B5EB08056EEB070C870E920E47EA811786
:1003600042EA8312A7FB0201B6EB0B0164EB000427
:100370002B0D43EA0C335E1844EB1C50DA46514611
:10038000E7FB0201C5F313044FEA0B3343EA1453AE
:100390004FEA0432019C43EA0603A4F10C040294E0
:1003A000009CCDE900B400F0B3F803B0BDE8F08FD5
:1003B00000200146F9E7C10F80EAE0700844CA074F
:1003C0009623002100F067B800F0004220F00040C2
:1003D000C10DC0F3160040F400007F2901DA0020AF
:1003E0007047962903DCC1F19601C84001E09639B7
:1003F0008840002AF4D04042704700F0004230F0BC
:1004000000400AD0C10D01F56071C0F3160042EA48
:100410000151C20840071143704700200146704750
:1004200001F0004330B421F0004150EA010206D04F
:100430000A0DA2F56072C1F31301002A02DC30BC80
:1004400000207047440F44EAC104C100E01830BCEA
:1004500000EBC25000F016B830B50B460146002044
:100460002022012409E021FA02F59D4205D303FA76
:1004700002F5491B04FA02F52844151EA2F10102F7
:10048000F1DC30BD0029A8BF7047401C490008BFFF
:1004900020F00100704710B4B0FA80FC00FA0CF0B4
:1004A00050EA010404BF10BC704749B1CCF12004EC
:1004B00021FA04F411FA0CF118BF01212143084379
:1004C000A3EB0C01CB1D4FEA00614FEA102042BFA5
:1004D000002010BC704700EBC35010440029A4BF9B
:1004E00010BC7047401C490008BF20F0010010BC40
:1004F000704710B5141E73F1000408DA401C41F176
:10050000000192185B411A4301D120F0010010BD97
:100510002DE9F04D92469B4611B1B1FA81F202E00D
:10052000B0FA80F22032904600F052F804460F46AE
:1005300040EA0A0041EA0B0153465A46084313D0E9
:10054000114653EA010019D0C8F14002504600F0AC
:100550004EF805460E4650465946424600F038F8D9
:10056000084305D0012004E020463946BDE8F08D5F
:100570000020054346EAE0762C4337430A9863059A
:10058000E40AA0EB08000022FD0A44EA47540A30BE
:1005900002D500200146E9E7010510196941DDE9AE
:1005A000084500196941BDE8F04DA2E7064C074D2A
:1005B00006E0E06840F0010394E807009847103433
:1005C000AC42F6D3FFF796FD6018000880180008CB
:1005D000202A04DB203A00FA02F100207047914003
:1005E000C2F1200320FA03F3194390407047202AF8
:1005F00004DB203A21FA02F00021704721FA02F3CD
:10060000D040C2F12002914008431946704721B101
:10061000826842F00102826003E0826822F00102F7
:100620008260704710B50121480200F067FA01218D
:10063000042000F063FA4020344908800020C8708C
:1006400003208870324800F05BF910202F490880A1
:100650000020C870032088702D4800F051F9042054
:100660002A4908800020C87003208870284800F0BC
:1006700047F92020254908800020C8700320887091
:10068000234800F03DF90820204908800020C87068
:10069000032088701E4800F033F902201B490880AF
:1006A0000020C87003208870194800F029F9002044
:1006B000184908600120087148714FF46020886073
:1006C0000020C86001200874134800F04BF8012195
:1006D000114800F023F801210F48FFF798FF0E485A
:1006E00000F0C4F800BF0C4800F031F80028FAD13F
:1006F000094800F0CBF800BF074800F01AF80028BE
:10070000FAD10121044800F0B6F810BD1400002011
:1007100000080140D00000200024014021B182687F
:1007200042F48072826003E0826822F48072826008
:100730007047014600208A6802F004020AB10120D5
:1007400000E0002070470146C86C80B27047014647
:1007500000208A6802F008020AB1012000E00020AF
:100760007047000030B502460020002350680F4C4F
:1007700020400D790C6844EA0524204350609068BD
:100780000B4C2040D1E902542C434D7944EA4504F6
:1007900020439060D06A20F470000C7C641EE4B2A8
:1007A000234340EA0350D06230BD0000FFFEF0FF5B
:1007B000FDF7F1FFF0B504460D4600200021092D9C
:1007C00011DDE068A5F10A0606EB4607072606FAE2
:1007D00007F18843A5F10A0606EB460603FA06F17F
:1007E0000843E0600CE0206905EB4507072606FAA0
:1007F00007F1884305EB450603FA06F1084320613B
:10080000072A0FDA606B561E06EB86071F2606FACC
:1008100007F18843561E06EB860605FA06F10843E3
:10082000606322E00D2A0FDA206BD61F06EB8607E5
:100830001F2606FA07F18843D61F06EB860605FA3F
:1008400006F10843206310E0E06AA2F10D0606EB12
:1008500086071F2606FA07F18843A2F10D0606EB6C
:10086000860605FA06F10843E062F0BD816841F0B2
:1008700008018160704721B1826842F4A002826061
:1008800003E0826822F4A00282607047816841F030
:100890000401816070472DE9F04105460E460027AE
:1008A000002406E055F824103846FFF74AFC0746B6
:1008B000641CB442F6DB2046FFF77DFD80464146CE
:1008C0003846FFF7C8FC07463846BDE8F08100BF50
:1008D000FEE7704710B50121082000F00FF94FF432
:1008E000007005490880032088701020C8700348F4
:1008F00000F006F810BD000014000020000C0140BC
:100900002DE9F041024600250026002000230024A6
:10091000002791F803C00CF00F0591F803C00CF00C
:10092000100CBCF1000F03D091F802C04CEA050591
:1009300091F800C0BCF1000F31D0146800202BE00A
:100940004FF0010C0CFA00F3B1F800C00CEA0306FA
:100950009E4220D183004FF00F0C0CFA03F7BC43EA
:1009600005FA03FC4CEA040491F803C0BCF1280F1B
:1009700006D14FF0010C0CFA00FCC2F814C00AE0DA
:1009800091F803C0BCF1480F05D14FF0010C0CFAEF
:1009900000FCC2F810C0401C0828D1D31460B1F884
:1009A00000C0BCF1FF0F34DD546800202EE000F1E0
:1009B000080C4FF0010808FA0CF3B1F800C00CEA7B
:1009C00003069E4221D183004FF00F0C0CFA03F76F
:1009D000BC4305FA03FC4CEA040491F803C0BCF1E3
:1009E000280F05D100F1080C08FA0CF8C2F81480A1
:1009F00091F803C0BCF1480F07D100F1080C4FF08B
:100A0000010808FA0CF8C2F81080401C0828CED360
:100A10005460BDE8F08100BFFEE700BFFEE770470D
:100A200070B5002100230F22C47804B3154C24684C
:100A300004F4E064C4F5E064210AC1F10403CA408F
:100A4000447804FA03F184781440214309010E4CE0
:100A50000678A155047804F01F050124AC40057800
:100A60006D11AD0005F1E025C5F8004109E00478FD
:100A700004F01F050124AC40044D0678761145F8BA
:100A8000264070BD0CED00E000E400E080E100E0F5
:100A900002490143024A1160704700000000FA0554
:100AA0000CED00E02DE9FC4705460E46914600247A
:100AB0000BE056F8241055F82400FFF79AFB074680
:100AC0005146FFF73EFB8246641C4C45F1DB504625
:100AD000FFF793FC0746064A064BFFF7FAFBCDE902
:100AE0000001FFF79DFC82465046BDE8FC870000F0
:100AF000FCA9F1D24D62603F7047000029B1064A5F
:100B000092690243044B9A6104E0034A926982436A
:100B1000014B9A61704700000010024030B500217F
:100B20000022002400232D4D6D6805F00C0121B139
:100B3000042905D0082923D105E0294D056022E0CC
:100B4000274D05601FE0254D6D6805F47012234D9B
:100B50006D6805F48034022505EB92421CB9214DE5
:100B6000554305600BE01D4D6D6805F400351DB162
:100B70001C4D5543056002E0194D5543056002E0E8
:100B8000174D056000BF00BF144D6D6805F0F00102
:100B90000909154D6B5C0568DD4045600F4D6D68BA
:100BA00005F4E061090A104D6B5C4568DD40856025
:100BB0000A4D6D6805F46051C90A0B4D6B5C4568C0
:100BC000DD40C560054D6D6805F44041890B074D5A
:100BD0006B5CC568B5FBF3F5056130BD00100240E4
:100BE00000127A0000093D000000002010000020E3
:100BF000704710B500F002F810BD00000CB50020E1
:100C0000019000903348006840F48030314908601A
:100C100000BF3048006800F4003000900198401C8C
:100C20000190009818B90198B0F5A06FF1D129484A
:100C3000006800F4003010B10120009001E00020B5
:100C400000900098012843D12348006840F010002C
:100C5000214908600846006820F003000860084643
:100C6000006840F0020008601A484068194948606E
:100C70000846406848600846406840F48060486024
:100C80000846406820F47C1048600846406840F4FC
:100C9000E81048600846006840F08070086000BFB7
:100CA0000C48006800F000700028F9D0094840683E
:100CB00020F00300074948600846406840F0020001
:100CC000486000BF0348406800F00C000828F9D1D4
:100CD0000CBD0000001002400020024070470000E0
:100CE00010B51348006840F001001149086008463B
:100CF0004068104908400E494860084600680E499F
:100D000008400B4908600846006820F4802008600D
:100D10000846406820F4FE0048604FF41F008860D9
:100D2000FFF767FF4FF000600449086010BD000046
:100D3000001002400000FFF8FFFFF6FE08ED00E0A3
:100D400010B501210420FFF7D9FE01218803FFF728
:100D5000D5FE4FF400701C4908801820C87003208D
:100D600088701A48FFF7CCFD4FF480601649088060
:100D70000420C8701548FFF7C3FD4FF4C060FFF7AB
:100D800087FE252012490870022088700120C87053
:100D90000846FFF745FE4FF416500E490860002044
:100DA0008880C880088188810C2048810A4800F02A
:100DB000B5F80121084800F049F8012240F2255118
:100DC000054800F086F810BD14000020000801401E
:100DD00018000020AC0000200038014010B540F29F
:100DE0002551154800F04BF820B3134800F002F9E4
:100DF0001249134A12688854084611490968405C30
:100E00000A280CD100200E49086003220D490B4826
:100E1000FFF788F970B101200B4908700AE0084813
:100E20000068401C0649086008460068042801D193
:100E30000020086010BD0000003801409A0000202A
:100E4000A4000020940000209900002021B1828994
:100E500042F40052828104E082894DF6FF731A4009
:100E60008281704702460020B1F5007F00D100BFAB
:100E700013880B400BB1012000E00020704770B5D3
:100E80000246002400230025002040F66A16B142E5
:100E900000D100BFC1F3421501F01F03012606FA7D
:100EA00003F3012D02D19689334006E0022D02D1D1
:100EB000168A334001E0968A33400C12012606FA66
:100EC00004F41688344013B10CB1012000E0002076
:100ED00070BDF0B50346002400260025002040F632
:100EE0006A17B94200D100BF1846C1F3421401F09D
:100EF0001F06012707FA06F5012C01D10C3004E08A
:100F0000022C01D1103000E014301AB107682F43D1
:100F1000076002E00768AF430760F0BD2DE9F047C6
:100F200086B005460E460024A24600BFA146002713
:100F3000B08900B100BF2F462C8A4CF6FF700440E8
:100F4000F08804432C82AC894EF6F3100440B0883C
:100F500031890843718908430443AC81AC8A4FF658
:100F6000FF400440B0890443AC8201A8FFF7D6FDDE
:100F70001F48874202D1DDF810A001E0DDF80CA087
:100F8000A88900F4004040B10AEBCA0000EB0A1047
:100F900031684900B0FBF1F807E00AEBCA0000EB4A
:100FA0000A1031688900B0FBF1F86420B8FBF0F05A
:100FB00004012009642101FB1089A88900F4004084
:100FC00040B1322000EBC900B0FBF1F000F00700A7
:100FD000044308E0322000EB09106421B0FBF1F07B
:100FE00000F00F0004432C8106B0BDE8F08700003C
:100FF0000038014001468888C0F308007047C1F3FB
:1010000008028280704700BFFEE700000FB4054B66
:1010100010B503A9044A029800F018F810BC5DF856
:1010200014FB000035140008A800002002E008C8E6
:10103000121F08C1002AFAD170477047002001E052
:1010400001C1121F002AFBD1704700002DE9FF4F9C
:1010500089B09B460446002506E025280BD05A4659
:101060000B999047641C6D1C20780028F5D10DB0B9
:101070002846BDE8F08F0027B8460122474900E026
:10108000074314F8013F203B02FA03F00842F7D16E
:1010900020782E2819D114F8010F47F004072A28C8
:1010A0000ED06FF02F022078A0F1300109290CD862
:1010B00008EB880102EB410100EB0108641CF2E738
:1010C0000A98641C50F8048B0A9020780028CED02F
:1010D000642808D0692806D075281ED05A460B9976
:1010E00090476D1C58E00A994FF00A0901C90A910E
:1010F000002802DA40422D2102E0390504D52B21D7
:101100008DF82010012103E0F90704D02021F7E732
:101110008A4608AE0DE00021FAE70A994FF00A0965
:1011200001C90A91F7E74946FFF796F9303106F809
:10113000011D0028F7D1ADEB060000F1200978076A
:1011400001D44FF00108C84502DDA8EB090000E01A
:1011500000208046002706E008A85A46C05D0B998B
:1011600090476D1C7F1C5745F6DB04E030205A4643
:101170000B9990476D1CB8F10001A8F10108F5DC4E
:1011800005E016F8010B5A460B9990476D1CB9F112
:101190000001A9F10109F4DC641C65E709280100DC
:1011A0002DE9F0418B480068FFF705F906468949AB
:1011B0000968481EFFF7FFF807468748D0F8D81798
:1011C0003846FFF716F805468348D0F8D417284666
:1011D000FEF7B7FF04463146FFF73DF87E49C1F8F8
:1011E000D8077C480068FFF7E6F8064679490968A1
:1011F000481EFFF7E0F807467848D0F8D817384679
:10120000FEF7F7FF05467648D0F8D4172846FEF7D4
:1012100098FF04463146FFF71EF87149C1F8D80718
:101220006C480068FFF7C7F806466A490968481E17
:10123000FFF7C1F807466948D0F8D8173846FEF7D7
:10124000D8FF05466548D0F8D4172846FEF779FF41
:1012500004463146FEF7FFFF6049C1F8D8075D48F4
:101260000068FFF7A8F806465A490968481EFFF7C4
:10127000A2F807465B48D0F8D8173846FEF7B9FF02
:1012800005465848D0F8D4172846FEF75AFF0446BA
:101290003146FEF7E0FF5349C1F8D8074D480068D2
:1012A000FFF789F806464B490968481EFFF783F89F
:1012B00007464D48D0F8D8173846FEF79AFF05463E
:1012C0004948D0F8D4172846FEF73BFF044631467C
:1012D000FEF7C1FF4449C1F8D8073E480068FFF750
:1012E0006AF806463B490968481EFFF764F8074656
:1012F0003E48D0F8D8173846FEF77BFF05463B48F6
:10130000D0F8D4172846FEF71CFF04463146FEF7F6
:10131000A2FF3649C1F8D8072E480068FFF74BF8FE
:1013200006462C490968481EFFF745F8074630482D
:1013300041683846FEF75DFF05462D48016828469E
:10134000FEF7FFFE04463146FEF785FF2849486058
:1013500020480068FFF72FF806461E490968481E16
:10136000FFF729F80746234841683846FEF741FF52
:101370000546204801682846FEF7E3FE044631464C
:10138000FEF769FF1B49486012480068FFF713F831
:10139000064610490968481EFFF70DF8074616482B
:1013A00041683846FEF725FF054613480168284680
:1013B000FEF7C7FE04463146FEF74DFF0E49486072
:1013C000044800684EF66021884201DD00BFFEE758
:1013D000BDE8F0815000002004010020BC10002076
:1013E000E0080020981800207420002050280020D9
:1013F0001C000020240000202C0000202DE9F047D4
:1014000005460C462046FEF7D6FF80464FF08A413F
:101410002846FEF7E8FE81460549FEF71CFF074611
:101420004146FEF7E6FE06463046BDE8F08700007E
:1014300000009B4470B504460D46E1B20548FFF735
:10144000DEFD00BF40210348FFF70CFD0028F9D066
:10145000204670BD00380140FFF73CFAFFF770FCF2
:10146000FFF7E0F8032013490870002012490860D4
:101470001FE01048007830B1012805D002280CD0B8
:10148000032815D10AE013E000F03AF903200949D6
:1014900008700020084908600AE009E000F00EF832
:1014A00005480068401C04490860FFF779FE00BF4A
:1014B00000BFDEE7990000205000002070B54FF01B
:1014C000FF307449086000BF72480068401C7149D1
:1014D00008600621704800F0FFF870496D4A1268F4
:1014E00041F8220004216C4800F0F6F86C49694A82
:1014F000126841F822000221674800F0EDF86949BE
:10150000644A126841F822000521634800F0E4F8BB
:101510006549604A126841F8220003215E4800F0E4
:10152000DBF862495B4A126841F8220001215A48FF
:1015300000F0D2F85E49574A126841F82200554837
:101540000068F028C0D1002400BF4BE0534951F897
:101550002400FEF730FF05464FF47A71FFF74EFF87
:10156000544941F824004E4951F82400FEF723FF66
:1015700005464FF47A71FFF741FF4F4941F82400C7
:10158000484951F82400FEF716FF05464FF47A71DA
:10159000FFF734FF494941F82400434951F824003A
:1015A000FEF709FF0546E621FFF728FF444941F809
:1015B00024003E4951F82400FEF7FDFE0546E621D1
:1015C000FFF71CFF3F4941F82400394951F8240036
:1015D000FEF7F1FE0546E621FFF710FF3A4941F814
:1015E0002400641C2B480068401C8442AEDB294860
:1015F0000168491C2F48FFF74EF92849C1F8D40764
:1016000024480168491C2C48FFF745F92449C1F8D2
:10161000D40720480168491C2848FFF73CF92149B4
:10162000C1F8D4071B480168491C2548FFF733F966
:101630001D49C1F8D40717480168491C2148FFF724
:101640002AF91A49C1F8D40712480168491C1E48F2
:10165000FFF721F91649C1F8D4070E480268521C59
:1016600017491448FFF71EFA18490860094802682C
:10167000521C14491048FFF715FA1549086005482F
:101680000268521C10490D48FFF70CFA1149086016
:1016900070BD00004C000020002401400401002027
:1016A000E0080020BC1000209818002074200020C2
:1016B00050280020EC040020C80C0020A4140020B6
:1016C000801C00205C240020382C00201C000020FE
:1016D000240000202C0000202DE9F04104460D4696
:1016E00000270723012229462046FFF763F82046FA
:1016F000FFF729F807463E463046BDE8F081000076
:101700002DE9F0412949D1F8D807FEF75DFE0446DE
:101710002749D1F8D807FEF757FE05462549D1F8E5
:10172000D807FEF751FE064623462A46314622A038
:10173000FFF76CFC3049D1F8D807FEF745FE0446A8
:101740002E49D1F8D807FEF73FFE05462C49D1F8BF
:10175000D807FEF739FE064623462A46314629A019
:10176000FFF754FC314948683149FEF774FD0746DC
:10177000FEF72AFE04462F4948682D49FEF76BFD07
:101780000746FEF721FE05462B4948682849FEF723
:1017900062FD0746FEF718FE064623462A463146F6
:1017A00026A0FFF733FCBDE8F0810000BC1000204C
:1017B000E0080020040100203F6E6F64653D736FF8
:1017C0006C61727076747864632666756C6C6A738B
:1017D0006F6E3D7B2249315F6D41223A25642C2298
:1017E00049325F6D41223A25642C2249335F6D41B5
:1017F000223A25642C00000050280020742000208C
:10180000981800202255315F302E3156223A256437
:101810002C2255325F302E3156223A25642C225527
:10182000335F302E3156223A25642C002C000020E4
:1018300000002041240000201C0000202250315FC5
:101840006D57223A25642C2250325F6D57223A257B
:10185000642C2250335F6D57223A25647D0A0000C4
:101860008018000800000020AC0000002C100008C8
:101870002C190008AC000020843300003C10000844
:101880000000000001020304010203040607080926
:101890000204060800000000000000000000000034
:1018A0000000000000000000000000000000000038
:1018B0000000000000000000000000000000000028
:1018C0000000000000000000000000000000000018
:1018D0000000000000000000000000000000000008
:1018E00000000000000000000000000000000000F8
:1018F00000000000000000000000000000000000E8
:1019000000000000000000000000000000000000D7
:10191000000000007265710A000000000000000075
:0C192000000000000000000000000000BB
:04000005080000ED02
:00000001FF
