:020000040800F2
:100000004034002001010008BF0A0008B70A0008B8
:10001000BB0A0008CB070008D7100008000000004A
:10002000000000000000000000000000C10C0008FB
:1000300071090008000000008B0B0008AD0D0008DE
:100040001B0100081B0100081B0100081B01000820
:100050001B0100081B0100081B0100081B01000810
:100060001B0100081B0100081B0100081B01000800
:100070001B0100081B0100081B0100081B010008F0
:100080001B0100081B0100081B0100081B010008E0
:100090001B0100081B0100081B0100081B010008D0
:1000A0001B0100081B0100081B0100081B010008C0
:1000B0001B0100081B0100081B0100081B010008B0
:1000C0001B0100081B0100081B0100081B010008A0
:1000D0001B010008AD0E00081B0100081B010008F1
:1000E0001B0100081B0100081B010008DFF80CD0F1
:1000F00000F06AF90048004721150008403400204C
:100100000648804706480047FEE7FEE7FEE7FEE7B1
:10011000FEE7FEE7FEE7FEE7FEE7FEE7B10D0008BB
:10012000ED00000830B505460020034600E05B1CEA
:10013000934205D2EC5CC85C201A01D1002CF6D1A8
:1001400030BDF0B480EA0102D40F4200B2EB410F9F
:1001500002D20246084611464A0042D0C30DDDB223
:10016000C1F3C752AD1A202D35DAC1F3160141F49F
:10017000000204B15242C5F1200602FA06F12A41FA
:100180001044B3EBD05F23D0C4B1012DA0EBC3501A
:1001900009DCF0BC4FF0004202EAC352DBB200F5CA
:1001A000000000F0E2B8400000F1807000EBC350A6
:1001B000A0F1807040EAD170490009E0490841EAA5
:1001C000C071A0EBC35000F50000400800EBC35025
:1001D000F0BC00F0C1B86142012202EB4101001BFA
:1001E000F6E7F0BC704781F00041AAE780F00040DC
:1001F000A7E780EA010210B502F00043400022D0D8
:100200004A001FD0010E01EB1261C0F35600C2F389
:10021000560240F4000042F40002A0FB0220000459
:100220007F39140400D0401C50EA124001D4400031
:10023000491EC2B20C0604EBD010401C4008802AB4
:1002400002D003E0002010BD20F00100002900DAF8
:100250000020184310BD30B480EA010202F00045CE
:1002600030F0004221F0004013D090B1C30DD40D06
:10027000C2F31601C0F31600E41A41F4000140F481
:1002800000027D34914201D3641C00E04900002C3F
:1002900002DA30BC002070474FF400000023914286
:1002A00001D3891A034340084FEA4101F7D151B104
:1002B000914202D14FF0004105E002D24FF001011E
:1002C00001E06FF0010103EBC450284430BC00F0A2
:1002D00043B8C10F80EAE0700844CA0796230021A2
:1002E00000F043B800F0004220F00040C10DC0F320
:1002F000160040F400007F2901DA0020704796299B
:1003000003DCC1F19601C84001E096398840002A1B
:10031000F4D0404270470000002801DBC0F10040EB
:10032000002901DBC1F100418142704730B50B4625
:10033000014600202022012409E021FA02F59D4215
:1003400005D303FA02F5491B04FA02F52844151EE9
:10035000A2F10102F1DC30BD0029A8BF7047401CAA
:10036000490008BF20F00100704710B4B0FA80FCCB
:1003700000FA0CF050EA010404BF10BC704749B108
:10038000CCF1200421FA04F411FA0CF118BF012178
:1003900021430843A3EB0C01CB1D4FEA00614FEA58
:1003A000102042BF002010BC704700EBC350104427
:1003B0000029A4BF10BC7047401C490008BF20F0B2
:1003C000010010BC70470000064C074D06E0E068D5
:1003D00040F0010394E8070098471034AC42F6D38C
:1003E000FFF788FE601900088019000821B18268B3
:1003F00042F00102826003E0826822F00102826022
:100400007047000010B50121084600F0BFFB012134
:10041000042000F0CBFB0121480200F0C7FB61483B
:1004200000F0E2F9604861490860614848600020D6
:1004300088600620C8600020086180204861400074
:1004400088618000C86120200862000248620020A4
:100450008862544800F06EFA0121524800F0B7F962
:100460004020544908800020C870032088705248FA
:1004700000F096FA10204F4908800020C870032031
:1004800088704D4800F08CFA04204A49088000200A
:10049000C87003208870484800F082FA202045493F
:1004A00008800020C87003208870434800F078FA64
:1004B0000820404908800020C870032088703E480A
:1004C00000F06EFA02203B4908800020C87003202B
:1004D0008870394800F064FA33484C3800F07CF8F2
:1004E0000020364908600120087148714FF46020EF
:1004F00088600020C860062008742B484C3800F043
:10050000ADF800230122114627484C3800F0CEF800
:1005100000230222114624484C3800F0C7F800237B
:100520000322114620484C3800F0C0F80023042272
:1005300011461D484C3800F0B9F800230522114639
:1005400019484C3800F0B2F800230622114616482C
:100550004C3800F0ABF8012113484C3800F030F86B
:10056000012111484C38FFF741FF0F484C3800F08B
:10057000F9F800BF0C484C3800F066F80028F9D1B3
:1005800009484C3800F0FEF800BF07484C3800F02E
:1005900051F80028F9D1012103484C3800F0E7F860
:1005A00010BD0000080002404C240140D000002093
:1005B000303000201400002000080140BC00002062
:1005C00021B1826842F48072826003E0826822F482
:1005D000807282607047000010B504461248844261
:1005E00008D10121401500F0F1FA0021601500F05A
:1005F000EDFA17E00D48844208D10121001500F002
:10060000E5FA0021201500F0E1FA0BE008488442E9
:1006100008D10121C80300F0D9FA00214FF40040AD
:1006200000F0D4FA10BD0000002401400028014071
:10063000003C0140014600208A6802F004020AB131
:10064000012000E000207047014600208A6802F087
:1006500008020AB1012000E00020704730B50246D0
:100660000020002350680F4C20400D790C6844EAAC
:1006700005242043506090680B4C2040D1E902547F
:100680002C434D7944EA450420439060D06A20F41D
:1006900070000C7C641EE4B2234340EA0350D06235
:1006A00030BD0000FFFEF0FFFDF7F1FFF0B504469E
:1006B0000D4600200021092D11DDE068A5F10A0694
:1006C00006EB4607072606FA07F18843A5F10A0656
:1006D00006EB460603FA06F10843E0600CE02069E9
:1006E00005EB4507072606FA07F1884305EB4506A3
:1006F00003FA06F108432061072A0FDA606B561EE1
:1007000006EB86071F2606FA07F18843561E06EBFE
:10071000860605FA06F10843606322E00D2A0FDA27
:10072000206BD61F06EB86071F2606FA07F18843C3
:10073000D61F06EB860605FA06F10843206310E093
:10074000E06AA2F10D0606EB86071F2606FA07F1FE
:100750008843A2F10D0606EB860605FA06F108436A
:10076000E062F0BD816841F008018160704721B10D
:10077000826842F4A002826003E0826822F4A00250
:1007800082607047816841F00401816070472DE903
:10079000F04105460E460027002406E055F82410D7
:1007A0003846FFF7CEFC0746641C2046FFF791FD54
:1007B00080463146FFF7B0FDF0D331463846FFF7AB
:1007C0004AFD07463846BDE8F08100BFFEE721B18B
:1007D000026842F00102026004E002684FF6FE7314
:1007E0001A4002607047000001684FF6FE72114027
:1007F00001600021016041608160C1604B49884215
:1008000008D14A490839496841F00F01474A083A76
:1008100051608AE045491431884208D1434908397A
:10082000496841F0F001414A083A51607DE03F4992
:100830002831884208D13D490839496841F470613E
:100840003A4A083A516070E038493C31884208D150
:1008500036490839496841F47041344A083A5160D0
:1008600063E032495031884208D13049083949683B
:1008700041F470212D4A083A516056E02B49643109
:10088000884208D129490839496841F47001274A4A
:10089000083A516049E025497831884208D1234916
:1008A0000839496841F07061204A083A51603CE0DB
:1008B0001F49884206D1011F096841F00F01021F3C
:1008C000116032E01A491431884208D11849091FD1
:1008D000096841F0F001164A121F116025E0144921
:1008E0002831884208D11249091F096841F4706112
:1008F0000F4A121F116018E00D493C31884208D19F
:100900000B49091F096841F47041094A121F11601F
:100910000BE007495031884207D10549091F096892
:1009200041F47021024A121F116070470800024012
:100930000804024010B50022026847F6F0739A439B
:100940000C6A8B6823430C6923434C6923438C69ED
:100950002343CC6923434C6A23438C6A23431A43C1
:100960000260CB6843600B6883604B68C36010BD56
:100970007047000010B50121082000F017F94FF46E
:10098000007005490880032088701020C870034853
:1009900000F006F810BD000014000020000C01401B
:1009A0002DE9F04102460025002600200023002406
:1009B000002791F803C00CF00F0591F803C00CF06C
:1009C000100CBCF1000F03D091F802C04CEA0505F1
:1009D00091F800C0BCF1000F31D0146800202BE06A
:1009E0004FF0010C0CFA00F3B1F800C00CEA03065A
:1009F0009E4220D183004FF00F0C0CFA03F7BC434A
:100A000005FA03FC4CEA040491F803C0BCF1280F7A
:100A100006D14FF0010C0CFA00FCC2F814C00AE039
:100A200091F803C0BCF1480F05D14FF0010C0CFA4E
:100A300000FCC2F810C0401C0828D1D31460B1F8E3
:100A400000C0BCF1FF0F34DD546800202EE000F13F
:100A5000080C4FF0010808FA0CF3B1F800C00CEADA
:100A600003069E4221D183004FF00F0C0CFA03F7CE
:100A7000BC4305FA03FC4CEA040491F803C0BCF142
:100A8000280F05D100F1080C08FA0CF8C2F8148000
:100A900091F803C0BCF1480F07D100F1080C4FF0EA
:100AA000010808FA0CF8C2F81080401C0828CED3C0
:100AB0005460BDE8F08100BFFEE700BFFEE770476D
:100AC00070B5002100230F22C47804B3154C2468AC
:100AD00004F4E064C4F5E064210AC1F10403CA40EF
:100AE000447804FA03F184781440214309010E4C40
:100AF0000678A155047804F01F050124AC40057860
:100B00006D11AD0005F1E025C5F8004109E004785C
:100B100004F01F050124AC40044D0678761145F819
:100B2000264070BD0CED00E000E400E080E100E054
:100B300002490143024A1160704700000000FA05B3
:100B40000CED00E02DE9F04705460E46174600245F
:100B50000BE056F8241055F82400FFF74AFB8146B5
:100B60004146FFF7EEFA8046641C2046FFF7B1FBD2
:100B700081463946FFF7D0FBEBD339464046FFF7B5
:100B80006AFB80464046BDE8F087704729B1064AB7
:100B900052690243044B5A6104E0034A526982439A
:100BA000014B5A61704700000010024029B1064A0B
:100BB00092690243044B9A6104E0034A92698243BA
:100BC000014B9A61704700000010024029B1064AAB
:100BD000D2680243044BDA6004E0034AD2688243DD
:100BE000014BDA60704700000010024030B5002170
:100BF0000022002400232D4D6D6805F00C0121B169
:100C0000042905D0082923D105E0294D056022E0FB
:100C1000274D05601FE0254D6D6805F47012234DCA
:100C20006D6805F48034022505EB92421CB9214D14
:100C3000554305600BE01D4D6D6805F400351DB191
:100C40001C4D5543056002E0194D5543056002E017
:100C5000174D056000BF00BF144D6D6805F0F00131
:100C60000909154D6B5C0568DD4045600F4D6D68E9
:100C700005F4E061090A104D6B5C4568DD40856054
:100C80000A4D6D6805F46051C90A0B4D6B5C4568EF
:100C9000DD40C560054D6D6805F44041890B074D89
:100CA0006B5CC568B5FBF3F5056130BD0010024013
:100CB00000127A0000093D00000000201000002012
:100CC000704710B500F002F810BD00000CB5002010
:100CD000019000903348006840F48030314908604A
:100CE00000BF3048006800F4003000900198401CBC
:100CF0000190009818B90198B0F5A06FF1D129487A
:100D0000006800F4003010B10120009001E00020E4
:100D100000900098012843D12348006840F010005B
:100D2000214908600846006820F003000860084672
:100D3000006840F0020008601A484068194948609D
:100D40000846406848600846406840F48060486053
:100D50000846406820F47C1048600846406840F42B
:100D6000E81048600846006840F08070086000BFE6
:100D70000C48006800F000700028F9D0094840686D
:100D800020F00300074948600846406840F0020030
:100D9000486000BF0348406800F00C000828F9D103
:100DA0000CBD00000010024000200240704700000F
:100DB00010B51348006840F001001149086008466A
:100DC0004068104908400E494860084600680E49CE
:100DD00008400B4908600846006820F4802008603D
:100DE0000846406820F4FE0048604FF41F00886009
:100DF000FFF767FF4FF000600449086010BD000076
:100E0000001002400000FFF8FFFFF6FE08ED00E0D2
:100E100010B501210420FFF7C9FE01218803FFF767
:100E2000C5FE4FF400701C4908801820C8700320CC
:100E300088701A48FFF7B4FD4FF4806016490880A7
:100E40000420C8701548FFF7ABFD4FF4C060FFF7F2
:100E50006FFE252012490870022088700120C8709A
:100E60000846FFF72DFE4FF416500E49086000208B
:100E70008880C880088188810C2048810A4800F059
:100E8000B5F80121084800F049F8012240F2255147
:100E9000054800F086F810BD14000020000801404D
:100EA00018000020AC0000200038014010B540F2CE
:100EB0002551154800F04BF820B3134800F002F913
:100EC0001249134A12688854084611490968405C5F
:100ED0000A280CD100200E49086003220D490B4856
:100EE000FFF720F970B101200B4908700AE00848AB
:100EF0000068401C0649086008460068042801D1C3
:100F00000020086010BD0000003801409A00002059
:100F1000A4000020940000209900002021B18289C3
:100F200042F40052828104E082894DF6FF731A4038
:100F30008281704702460020B1F5007F00D100BFDA
:100F400013880B400BB1012000E00020704770B502
:100F50000246002400230025002040F66A16B14214
:100F600000D100BFC1F3421501F01F03012606FAAC
:100F700003F3012D02D19689334006E0022D02D100
:100F8000168A334001E0968A33400C12012606FA95
:100F900004F41688344013B10CB1012000E00020A5
:100FA00070BDF0B50346002400260025002040F661
:100FB0006A17B94200D100BF1846C1F3421401F0CC
:100FC0001F06012707FA06F5012C01D10C3004E0B9
:100FD000022C01D1103000E014301AB107682F4301
:100FE000076002E00768AF430760F0BD2DE9F047F6
:100FF00086B005460E460024A24600BFA146002743
:10100000B08900B100BF2F462C8A4CF6FF70044017
:10101000F08804432C82AC894EF6F3100440B0886B
:1010200031890843718908430443AC81AC8A4FF687
:10103000FF400440B0890443AC8201A8FFF7D6FD0D
:101040001F48874202D1DDF810A001E0DDF80CA0B6
:10105000A88900F4004040B10AEBCA0000EB0A1076
:1010600031684900B0FBF1F807E00AEBCA0000EB79
:101070000A1031688900B0FBF1F86420B8FBF0F089
:1010800004012009642101FB1089A88900F40040B3
:1010900040B1322000EBC900B0FBF1F000F00700D6
:1010A000044308E0322000EB09106421B0FBF1F0AA
:1010B00000F00F0004432C8106B0BDE8F08700006B
:1010C0000038014001468888C0F308007047C1F32A
:1010D00008028280704700BFFEE700000FB4054B96
:1010E00010B503A9044A029800F018F810BC5DF886
:1010F00014FB0000FD140008A800002002E008C84E
:10110000121F08C1002AFAD170477047002001E081
:1011100001C1121F002AFBD1704700002DE9FF4FCB
:1011200089B09B460446002506E025280BD05A4688
:101130000B999047641C6D1C20780028F5D10DB0E8
:101140002846BDE8F08F0027B8460122474900E055
:10115000074314F8013F203B02FA03F00842F7D19D
:1011600020782E2819D114F8010F47F004072A28F7
:101170000ED06FF02F022078A0F1300109290CD891
:1011800008EB880102EB410100EB0108641CF2E767
:101190000A98641C50F8048B0A9020780028CED05E
:1011A000642808D0692806D075281ED05A460B99A5
:1011B00090476D1C58E00A994FF00A0901C90A913D
:1011C000002802DA40422D2102E0390504D52B2106
:1011D0008DF82010012103E0F90704D02021F7E762
:1011E0008A4608AE0DE00021FAE70A994FF00A0995
:1011F00001C90A91F7E74946FFF798F8303106F838
:10120000011D0028F7D1ADEB060000F12009780799
:1012100001D44FF00108C84502DDA8EB090000E049
:1012200000208046002706E008A85A46C05D0B99BA
:1012300090476D1C7F1C5745F6DB04E030205A4672
:101240000B9990476D1CB8F10001A8F10108F5DC7D
:1012500005E016F8010B5A460B9990476D1CB9F141
:101260000001A9F10109F4DC641C65E7092801000B
:101270002DE9F0418B480068FFF72BF806468949B5
:101280000968481EFFF725F807468748D0F8D817A1
:101290003846FEF7AEFF05468348D0F8D4172846F7
:1012A000FEF74FFF04463146FEF7D5FF7E49C1F8F1
:1012B000D8077C480068FFF70CF8064679490968AA
:1012C000481EFFF706F807467848D0F8D817384682
:1012D000FEF78FFF05467548D0F8D4172846FEF76D
:1012E00030FF04463146FEF7B6FF7049C1F8D80713
:1012F0006C480068FEF7EDFF06466A490968481E1B
:10130000FEF7E7FF07466A48D0F8D8173846FEF7D9
:1013100070FF05466648D0F8D4172846FEF711FF3F
:1013200004463146FEF797FF6149C1F8D8075D488A
:101330000068FEF7CEFF06465A490968481EFEF7C8
:10134000C8FF07465B48D0F8D8173846FEF751FF6C
:1013500005465848D0F8D4172846FEF7F2FE044652
:101360003146FEF778FF5349C1F8D8074D48006869
:10137000FEF7AFFF06464B490968481EFEF7A9FF76
:1013800007464D48D0F8D8173846FEF732FF0546D5
:101390004948D0F8D4172846FEF7D3FE0446314614
:1013A000FEF759FF4449C1F8D8073E480068FEF7E8
:1013B00090FF06463B490968481EFEF78AFF07462C
:1013C0003E48D0F8D8173846FEF713FF05463B488D
:1013D000D0F8D4172846FEF7B4FE04463146FEF78F
:1013E0003AFF3649C1F8D8072E480068FEF771FF6A
:1013F00006462C490968481EFEF76BFF0746304831
:1014000041683846FEF7F5FE05462D480168284636
:10141000FEF797FE04463146FEF71DFF2849486057
:1014200020480068FEF755FF06461E490968481E19
:10143000FEF74FFF0746234841683846FEF7D9FEBE
:101440000546204801682846FEF77BFE04463146E3
:10145000FEF701FF1B49486012480068FEF739FF9C
:10146000064610490968481EFEF733FF074616482E
:1014700041683846FEF7BDFE054613480168284618
:10148000FEF75FFE04463146FEF7E5FE0E49486072
:10149000044800684EF66021884201DD00BFFEE787
:1014A000BDE8F0815000002008010020E408002081
:1014B000C01000209C180020782000205428002014
:1014C0001C000020240000202C0000202DE9F04109
:1014D00004460D464FF08A412046FEF784FE8046C2
:1014E0000549FEF7B8FE07462946FEF782FE064686
:1014F0003046BDE8F081000000009B4470B5044612
:101500000D46E1B20548FFF7E2FD00BF4021034868
:10151000FFF710FD0028F9D0204670BD00380140CB
:10152000FFF728FAFFF774FCFEF76CFF032013495E
:1015300008700020124908601FE01048007830B1A0
:10154000012805D002280CD0032815D10AE013E0A9
:1015500000F056F903200949087000200849086086
:101560000AE009E000F00EF805480068401C044954
:101570000860FFF77DFE00BF00BFDEE79900002096
:101580005000002070B54FF0FF308449086000BF64
:1015900082480068401C814908600621804800F0AC
:1015A00023F980497D4A126841F8220004217C48D1
:1015B00000F01AF97C49794A126841F822000221A8
:1015C000774800F011F97949744A126841F822000D
:1015D0000521734800F008F97549704A126841F80E
:1015E000220003216E4800F0FFF872496B4A12682E
:1015F00041F8220001216A4800F0F6F86E49674A76
:10160000126841F8220065480068F028C0D1002423
:1016100000BF48E0634951F82400FEF75AFE054632
:101620006649FFF753FF664941F824005E4951F8C7
:101630002400FEF74EFE05466049FFF747FF61496B
:1016400041F82400594951F82400FEF742FE0546AE
:101650005A49FFF73BFF5C4941F82400544951F8CF
:101660002400FEF736FE05465849FFF72FFF58497C
:1016700041F824004F4951F82400FEF72AFE0546A0
:101680005249FFF723FF534941F824004A4951F8D2
:101690002400FEF71EFE05464C49FFF717FF4E4992
:1016A00041F82400641C3D480068401C8442B1DBC2
:1016B0003A480068401CFEF70CFE054629464048A3
:1016C000FFF765F83749C1F8D40734480068401C73
:1016D000FEF7FFFD054629463A48FFF758F832491C
:1016E000C1F8D4072D480068401CFEF7F2FD0546FE
:1016F00029463548FFF74BF82C49C1F8D40727484D
:101700000068401CFEF7E5FD054629463048FFF716
:101710003EF82749C1F8D40720480068401CFEF76E
:10172000D8FD054629462B48FFF731F82149C1F875
:10173000D4071A480068401CFEF7CBFD0546294631
:101740002548FFF724F81C49C1F8D407134800685E
:10175000401CFEF7BEFD05462A461D491848FFF706
:10176000F1F91E4908600D480068401CFEF7B1FD04
:1017700005462A4617491348FFF7E4F91849086057
:1017800006480068401CFEF7A4FD05462A4612499B
:101790000D48FFF7D7F91349086070BD4C000020D1
:1017A0000024014008010020E4080020C0100020AF
:1017B0009C180020782000205428002000007A4443
:1017C000F0040020CC0C0020A81400200000664388
:1017D000841C0020602400203C2C00201C000020E1
:1017E000240000202C00002030B5034600224C1EAF
:1017F000024D35F81420104630BD00003030002076
:101800002DE9F0412949D1F8D807FEF76BFD0446D0
:101810002749D1F8D807FEF765FD05462549D1F8D7
:10182000D807FEF75FFD064623462A46314622A02A
:10183000FFF754FC3049D1F8D807FEF753FD0446B2
:101840002E49D1F8D807FEF74DFD05462C49D1F8B1
:10185000D807FEF747FD064623462A46314629A00B
:10186000FFF73CFC314948683149FEF7F4FC074674
:10187000FEF738FD04462F4948682D49FEF7EBFC7A
:101880000746FEF72FFD05462B4948682849FEF715
:10189000E2FC0746FEF726FD064623462A46314669
:1018A00026A0FFF71BFCBDE8F0810000C01000205F
:1018B000E4080020080100203F6E6F64653D736FEF
:1018C0006C61727076747864632666756C6C6A738A
:1018D0006F6E3D7B2249315F6D41223A25642C2297
:1018E00049325F6D41223A25642C2249335F6D41B4
:1018F000223A25642C000000542800207820002083
:101900009C1800202255315F302E3156223A256432
:101910002C2255325F302E3156223A25642C225526
:10192000335F302E3156223A25642C002C000020E3
:1019300000002041240000201C0000202250315FC4
:101940006D57223A25642C2250325F6D57223A257A
:10195000642C2250335F6D57223A25647D0A0000C3
:101960008019000800000020AC000000FC100008F6
:101970002C1A0008AC000020943300000C11000861
:101980000000000001020304010203040607080925
:101990000204060800000000000000000000000033
:1019A0000000000000000000000000000000000037
:1019B0000000000000000000000000000000000027
:1019C0000000000000000000000000000000000017
:1019D0000000000000000000000000000000000007
:1019E00000000000000000000000000000000000F7
:1019F00000000000000000000000000000000000E7
:101A000000000000000000000000000000000000D6
:101A1000000000007265710A000000000000000074
:0C1A2000000000000000000000000000BA
:04000005080000ED02
:00000001FF
