:020000040800F2
:10000000C833002001010008670B00085F0B0008DF
:10001000630B0008B1090008FF120008000000008F
:10002000000000000000000000000000B10D00080A
:10003000B509000800000000410C00089D0E0008F2
:100040001B0100081B0100081B0100081B01000820
:100050001B0100081B0100081B0100081B01000810
:100060001B0100081B0100081B0100081B01000800
:100070001B0100081B0100081B0100081B010008F0
:100080001B0100081B0100081B0100081B010008E0
:100090001B0100081B0100081B0100081B010008D0
:1000A0001B0100081B0100081B0100081B010008C0
:1000B0001B0100081B0100081B0100081B010008B0
:1000C0001B0100081B0100081B0100081B010008A0
:1000D0001B010008D51000081B0100081B010008C7
:1000E0001B0100081B0100081B010008DFF80CD0F1
:1000F00000F0AEFA0048004701150008C8330020A0
:100100000648804706480047FEE7FEE7FEE7FEE7B1
:10011000FEE7FEE7FEE7FEE7FEE7FEE7A10E0008CA
:10012000ED00000830B505460020034600E05B1CEA
:10013000934205D2EC5CC85C201A01D1002CF6D1A8
:1001400030BDF0B480EA0102D40F4200B2EB410F9F
:1001500002D20246084611464A0042D0C30DDDB223
:10016000C1F3C752AD1A202D35DAC1F3160141F49F
:10017000000204B15242C5F1200602FA06F12A41FA
:100180001044B3EBD05F23D0C4B1012DA0EBC3501A
:1001900009DCF0BC4FF0004202EAC352DBB200F5CA
:1001A000000000F078B9400000F1807000EBC3500F
:1001B000A0F1807040EAD170490009E0490841EAA5
:1001C000C071A0EBC35000F50000400800EBC35025
:1001D000F0BC00F057B96142012202EB4101001B63
:1001E000F6E7F0BC704781F00041AAE780F00040DC
:1001F000A7E780EA010210B502F00043400022D0D8
:100200004A001FD0010E01EB1261C0F35600C2F389
:10021000560240F4000042F40002A0FB0220000459
:100220007F39140400D0401C50EA124001D4400031
:10023000491EC2B20C0604EBD010401C4008802AB4
:1002400002D003E0002010BD20F00100002900DAF8
:100250000020184310BD30B480EA010202F00045CE
:1002600030F0004221F0004013D090B1C30DD40D06
:10027000C2F31601C0F31600E41A41F4000140F481
:1002800000027D34914201D3641C00E04900002C3F
:1002900002DA30BC002070474FF400000023914286
:1002A00001D3891A034340084FEA4101F7D151B104
:1002B000914202D14FF0004105E002D24FF001011E
:1002C00001E06FF0010103EBC450284430BC00F0A2
:1002D000D9B82DE9FE4F81EA030404F0004421F06F
:1002E000004100944FF0000B23F0004350EA01045A
:1002F0005ED052EA03045BD0C3F30A54C1F30A553B
:100300002C44A4F2F3340194A0FB0254C1F3130172
:1003100041F48011C3F3130343F4801301FB02443F
:1003200000FB034E840A970A44EA815447EA835744
:10033000A4FB076802958D0A05FB07854FEA932CFD
:1003400004FB0C542705029D4FEA065847EA16376E
:10035000B5EB08056EEB070C870E920E47EA811786
:1003600042EA8312A7FB0201B6EB0B0164EB000427
:100370002B0D43EA0C335E1844EB1C50DA46514611
:10038000E7FB0201C5F313044FEA0B3343EA1453AE
:100390004FEA0432019C43EA0603A4F10C040294E0
:1003A000009CCDE900B400F0B3F803B0BDE8F08FD5
:1003B00000200146F9E7C10F80EAE0700844CA074F
:1003C0009623002100F067B800F0004220F00040C2
:1003D000C10DC0F3160040F400007F2901DA0020AF
:1003E0007047962903DCC1F19601C84001E09639B7
:1003F0008840002AF4D04042704700F0004230F0BC
:1004000000400AD0C10D01F56071C0F3160042EA48
:100410000151C20840071143704700200146704750
:1004200001F0004330B421F0004150EA010206D04F
:100430000A0DA2F56072C1F31301002A02DC30BC80
:1004400000207047440F44EAC104C100E01830BCEA
:1004500000EBC25000F016B830B50B460146002044
:100460002022012409E021FA02F59D4205D303FA76
:1004700002F5491B04FA02F52844151EA2F10102F7
:10048000F1DC30BD0029A8BF7047401C490008BFFF
:1004900020F00100704710B4B0FA80FC00FA0CF0B4
:1004A00050EA010404BF10BC704749B1CCF12004EC
:1004B00021FA04F411FA0CF118BF01212143084379
:1004C000A3EB0C01CB1D4FEA00614FEA102042BFA5
:1004D000002010BC704700EBC35010440029A4BF9B
:1004E00010BC7047401C490008BF20F0010010BC40
:1004F000704710B5141E73F1000408DA401C41F176
:10050000000192185B411A4301D120F0010010BD97
:100510002DE9F04D92469B4611B1B1FA81F202E00D
:10052000B0FA80F22032904600F0A4F804460F465C
:1005300040EA0A0041EA0B0153465A46084313D0E9
:10054000114653EA010019D0C8F14002504600F0AC
:10055000A0F805460E4650465946424600F08AF835
:10056000084305D0012004E020463946BDE8F08D5F
:100570000020054346EAE0762C4337430A9863059A
:10058000E40AA0EB08000022FD0A44EA47540A30BE
:1005900002D500200146E9E7010510196941DDE9AE
:1005A000084500196941BDE8F04DA2E72DE9F04D7D
:1005B00000231A461B1A8A4103DB00200146BDE8CE
:1005C000F08DC1F30A52C1F3130141F480154FF0CD
:1005D000000BD10702D100186D41521E00270446BE
:1005E00040F2FF11384601EB620A3E468046024661
:1005F00000204FF4801100F04CF8C2197141BB1873
:1006000046EB0100B4EB030C75EB000C04D3E41AC9
:1006100065EB000517460E46241908F101006D41EF
:1006200080463428E3DDF91946EB0600091BA84192
:1006300003D24FF0FF32134601E0002213461BEBBA
:10064000070046EB0A51BDE8F04DFFF752BF00002E
:10065000064C074D06E0E06840F0010394E807000F
:1006600098471034AC42F6D3FFF744FDF817000862
:1006700018180008202A04DB203A00FA02F10020B2
:1006800070479140C2F1200320FA03F319439040D0
:100690007047202A04DB203A21FA02F0002170473B
:1006A00021FA02F3D040C2F12002914008431946DA
:1006B0007047000010B50121480200F0D3FA012173
:1006C000042000F0CFFA1020204908800020C870D4
:1006D000032088701E4800F0B7F904201B490880E9
:1006E0000020C87003208870194800F0ADF9002080
:1006F000184908600120087148714FF46020886033
:100700000020C86001200874134800F0A5F80121FA
:10071000114800F07EF801210F4800F06FF80E48F4
:1007200000F01EF900BF0C4800F08CF80028FAD148
:10073000094800F025F900BF074800F075F80028C7
:10074000FAD10121044800F010F910BD1400002076
:1007500000080140B00000200024014010B5012134
:10076000880200F07FFA0121042000F07BFA2020AB
:100770001E4908800020C870032088701C4800F0C3
:1007800063F900201B4908600120087148714FF48B
:10079000602088600020C86001200874164800F0BE
:1007A0005BF8052301221946134800F07DF801216A
:1007B000114800F023F8012000F0E8F80E4800F09E
:1007C000CFF800BF0C4800F03DF80028FAD10A48E5
:1007D00000F0D6F800BF084800F026F80028FAD14B
:1007E0000121054800F0C1F810BD000014000020F0
:1007F00000080140C40000200028014021B18268A7
:1008000042F00102826003E0826822F0010282600D
:10081000704721B1826842F48072826003E082688E
:1008200022F4807282607047014600208A6802F0DC
:1008300004020AB1012000E0002070470146C86CA4
:1008400080B27047014600208A6802F008020AB1AF
:10085000012000E00020704730B502460020002350
:1008600050680F4C20400D790C6844EA0524204361
:10087000506090680B4C2040D1E902542C434D79D4
:1008800044EA450420439060D06A20F470000C7C58
:10089000641EE4B2234340EA0350D06230BD00003E
:1008A000FFFEF0FFFDF7F1FFF0B504460D46002016
:1008B0000021092D11DDE068A5F10A0606EB4607C7
:1008C000072606FA07F18843A5F10A0606EB460655
:1008D00003FA06F10843E0600CE0206905EB4507E8
:1008E000072606FA07F1884305EB450603FA06F1E9
:1008F00008432061072A0FDA606B561E06EB860755
:100900001F2606FA07F18843561E06EB860605FAEF
:1009100006F10843606322E00D2A0FDA206BD61F30
:1009200006EB86071F2606FA07F18843D61F06EB5B
:10093000860605FA06F10843206310E0E06AA2F19A
:100940000D0606EB86071F2606FA07F18843A2F17B
:100950000D0606EB860605FA06F10843E062F0BDD7
:10096000816841F008018160704721B1826842F4DA
:10097000A002826003E0826822F4A00282607047D5
:10098000816841F0040181607047000030B107497F
:10099000096841F40001054A116005E0034909684E
:1009A00021F40001014A1160704700000824014051
:1009B00000BFFEE77047000070B5044625460026DC
:1009C00000201349134A126841F8220010E06D1EFE
:1009D0000521114800F066FE06460D480D490968DC
:1009E00050F8210081190A480A4A126840F822107A
:1009F000002DECD106480749096850F8210090FB0A
:100A0000F4F10348034A126840F8221070BD000058
:100A1000F4270020340000200028014010B50121F7
:100A2000082000F01FF94FF40070054908800320EA
:100A300088701020C870034800F006F810BD000050
:100A400014000020000C01402DE9F0410246002571
:100A50000026002000230024002791F803C00CF09A
:100A60000F0591F803C00CF0100CBCF1000F03D07F
:100A700091F802C04CEA050591F800C0BCF1000FE6
:100A800031D0146800202BE04FF0010C0CFA00F379
:100A9000B1F800C00CEA03069E4220D183004FF05B
:100AA0000F0C0CFA03F7BC4305FA03FC4CEA0404F0
:100AB00091F803C0BCF1280F06D14FF0010C0CFADD
:100AC00000FCC2F814C00AE091F803C0BCF1480F62
:100AD00005D14FF0010C0CFA00FCC2F810C0401C0C
:100AE0000828D1D31460B1F800C0BCF1FF0F34DD89
:100AF000546800202EE000F1080C4FF0010808FABD
:100B00000CF3B1F800C00CEA03069E4221D1830029
:100B10004FF00F0C0CFA03F7BC4305FA03FC4CEA48
:100B2000040491F803C0BCF1280F05D100F1080CB2
:100B300008FA0CF8C2F8148091F803C0BCF1480F11
:100B400007D100F1080C4FF0010808FA0CF8C2F8C0
:100B50001080401C0828CED35460BDE8F08100BF4F
:100B6000FEE700BFFEE7704770B5002100230F22AB
:100B7000C47804B3154C246804F4E064C4F5E0645C
:100B8000210AC1F10403CA40447804FA03F18478CD
:100B90001440214309010E4C0678A155047804F055
:100BA0001F050124AC4005786D11AD0005F1E0256D
:100BB000C5F8004109E0047804F01F050124AC40A9
:100BC000044D0678761145F8264070BD0CED00E026
:100BD00000E400E080E100E002490143024A1160C4
:100BE000704700000000FA050CED00E02DE9FC471D
:100BF00005460E46914600240BE056F8241055F8A1
:100C00002400FFF7F6FA07465146FFF79AFA8246A4
:100C1000641C4C45F1DB5046FFF7EFFB0746064AE4
:100C2000064BFFF756FBCDE90001FFF7F9FB8246C3
:100C30005046BDE8FC870000FCA9F1D24D62603F40
:100C40007047000029B1064AD2690243044BDA61B9
:100C500004E0034AD2698243014BDA617047000025
:100C60000010024029B1064A92690243044B9A617E
:100C700004E0034A92698243014B9A617047000085
:100C80000010024030B500210022002400232D4D29
:100C90006D6805F00C0121B1042905D0082923D184
:100CA00005E0294D056022E0274D05601FE0254D38
:100CB0006D6805F47012234D6D6805F480340225CB
:100CC00005EB92421CB9214D554305600BE01D4DCB
:100CD0006D6805F400351DB11C4D5543056002E0FB
:100CE000194D5543056002E0174D056000BF00BF78
:100CF000144D6D6805F0F0010909154D6B5C056830
:100D0000DD4045600F4D6D6805F4E061090A104D46
:100D10006B5C4568DD4085600A4D6D6805F4605187
:100D2000C90A0B4D6B5C4568DD40C560054D6D68BB
:100D300005F44041890B074D6B5CC568B5FBF3F5C5
:100D4000056130BD0010024000127A0000093D002C
:100D500000000020100000202DE9F05F81468A4647
:100D60004FF0000B00240BE059F8241059F8240030
:100D7000FFF73FFA05465946FFF7E3F98346641C3F
:100D80005445F1DB2046FFF716FB05462946584639
:100D9000FFF761FA83465846FFF72FFB074600F03E
:100DA000E3FC0546FFF73CFB83465846BDE8F09F51
:100DB000704710B500F002F810BD00000CB500201F
:100DC000019000903348006840F480303149086059
:100DD00000BF3048006800F4003000900198401CCB
:100DE0000190009818B90198B0F5A06FF1D1294889
:100DF000006800F4003010B10120009001E00020F4
:100E000000900098012843D12348006840F010006A
:100E1000214908600846006820F003000860084681
:100E2000006840F0020008601A48406819494860AC
:100E30000846406848600846406840F48060486062
:100E40000846406820F47C1048600846406840F43A
:100E5000E81048600846006840F08070086000BFF5
:100E60000C48006800F000700028F9D0094840687C
:100E700020F00300074948600846406840F002003F
:100E8000486000BF0348406800F00C000828F9D112
:100E90000CBD00000010024000200240704700001E
:100EA00010B51348006840F0010011490860084679
:100EB0004068104908400E494860084600680E49DD
:100EC00008400B4908600846006820F4802008604C
:100ED0000846406820F4FE0048604FF41F00886018
:100EE000FFF767FF4FF000600449086010BD000085
:100EF000001002400000FFF8FFFFF6FE08ED00E0E2
:100F00001FB501210420FFF79DFE41F61F40ADF8FB
:100F1000040042F20F70ADF808000020ADF80600A2
:100F200001A90F4800F036F801210D4800F01AF829
:100F3000012211460A4800F024F80121084800F077
:100F400014F81E208DF8000000208DF801008DF8A7
:100F5000020001208DF803006846FFF705FE1FBD63
:100F600000080040CA430282704721B1028842F063
:100F70000102028004E002884FF6FE731A400280EC
:100F800070471AB183890B43838102E083898B43C5
:100F900083817047002202881D4B98420ED01D4B62
:100FA00098420BD0B0F1804F08D01B4B984205D02F
:100FB0001A4B984202D01A4B984204D14FF68F73C5
:100FC0001A404B881A43174B984207D0164B984249
:100FD00004D04FF6FF431A40CB881A4302808B8817
:100FE00083850B8803850A4B98420BD0094B9842A6
:100FF00008D00E4B984205D00D4B984202D00D4BB5
:10100000984201D10B7A0386012383827047000046
:10101000002C014000340140000400400008004062
:10102000000C00400010004000140040004001404F
:10103000004401400048014010B501210420FFF7A1
:1010400011FE01218803FFF70DFE4FF400701C49CB
:1010500008801820C870032088701A48FFF7F4FC35
:101060004FF48060164908800420C8701548FFF7C7
:10107000EBFC4FF4C060FFF7AFFD2520124908706C
:10108000022088700120C8700846FFF76DFD4FF4FC
:1010900016500E49086000208880C8800881888129
:1010A0000C2048810A4800F0B5F80121084800F0FA
:1010B00049F8012240F22551054800F086F810BD9C
:1010C0001400002000080140180000208C000020BF
:1010D0000038014010B540F22551154800F04BF89A
:1010E00020B3134800F002F91249134A12688854D9
:1010F000084611490968405C0A280CD100200E49B5
:10110000086003220D490B48FFF70CF870B103206B
:101110000B4908700AE008480068401C064908604E
:1011200008460068042801D10020086010BD0000B6
:101130000038014076000020800000207000002070
:101140007500002021B1828942F40052828104E0BE
:1011500082894DF6FF731A40828170470246002053
:10116000B1F5007F00D100BF13880B400BB1012007
:1011700000E00020704770B50246002400230025DF
:10118000002040F66A16B14200D100BFC1F34215FB
:1011900001F01F03012606FA03F3012D02D19689FF
:1011A000334006E0022D02D1168A334001E0968AD0
:1011B00033400C12012606FA04F41688344013B1A9
:1011C0000CB1012000E0002070BDF0B50346002402
:1011D00000260025002040F66A17B94200D100BF62
:1011E0001846C1F3421401F01F06012707FA06F55D
:1011F000012C01D10C3004E0022C01D1103000E0B0
:1012000014301AB107682F43076002E00768AF4344
:101210000760F0BD2DE9F04786B005460E46002474
:10122000A24600BFA1460027B08900B100BF2F46EB
:101230002C8A4CF6FF700440F08804432C82AC8961
:101240004EF6F3100440B088318908437189084391
:101250000443AC81AC8A4FF6FF400440B08904439C
:10126000AC8201A8FFF70EFD1F48874202D1DDF8CE
:1012700010A001E0DDF80CA0A88900F4004040B106
:101280000AEBCA0000EB0A1031684900B0FBF1F824
:1012900007E00AEBCA0000EB0A1031688900B0FBD6
:1012A000F1F86420B8FBF0F004012009642101FB8F
:1012B0001089A88900F4004040B1322000EBC90039
:1012C000B0FBF1F000F00700044308E0322000EB2F
:1012D00009106421B0FBF1F000F00F0004432C81F1
:1012E00006B0BDE8F087000000380140014688885C
:1012F000C0F308007047C1F308028280704700BF46
:10130000FEE700000FB4054B10B503A9044A02988C
:1013100000F01EF810BC5DF814FB0000DD1400089E
:101320008400002002E008C8121F08C1002AFAD178
:1013300070477047002001E001C1121F002AFBD155
:1013400070470000014908607047000088000020D5
:101350002DE9FF4F89B09B460446002506E025286D
:101360000BD05A460B999047641C6D1C20780028BE
:10137000F5D10DB02846BDE8F08F0027B846012210
:10138000474900E0074314F8013F203B02FA03F00D
:101390000842F7D120782E2819D114F8010F47F010
:1013A00004072A280ED06FF02F022078A0F1300118
:1013B00009290CD808EB880102EB410100EB010878
:1013C000641CF2E70A98641C50F8048B0A90207899
:1013D0000028CED0642808D0692806D075281ED0F1
:1013E0005A460B9990476D1C58E00A994FF00A092C
:1013F00001C90A91002802DA40422D2102E0390594
:1014000004D52B218DF82010012103E0F90704D029
:101410002021F7E78A4608AE0DE00021FAE70A9995
:101420004FF00A0901C90A91F7E74946FFF714F896
:10143000303106F8011D0028F7D1ADEB060000F1B0
:101440002009780701D44FF00108C84502DDA8EB58
:10145000090000E000208046002706E008A85A4660
:10146000C05D0B9990476D1C7F1C5745F6DB04E06F
:1014700030205A460B9990476D1CB8F10001A8F135
:101480000108F5DC05E016F8010B5A460B99904768
:101490006D1CB9F10001A9F10109F4DC641C65E7D8
:1014A000092801002DE9F04705460C462046FEF7C5
:1014B00082FF80464FF08A412846FEF794FE81461F
:1014C0000549FEF7C8FE07464146FEF792FE06466E
:1014D0003046BDE8F087000000009B4470B504462C
:1014E0000D46E1B20548FFF706FF00BF4021034863
:1014F000FFF734FE0028F9D0204670BD00380140C7
:10150000FFF78CFAFFF798FDFFF7D4F8FFF726F9FD
:10151000FFF7F6FC00200E49087018E00C48007830
:1015200030B1012805D0022809D003280ED107E0E8
:101530000CE000F0E7F800200549087006E005E03F
:1015400000F008F801200249087000BF00BFE5E77D
:101550007500002070B500BF0020464908601E20BD
:10156000FFF72AFA44480068B0F5006FF4DC00BFCA
:101570001E20FFF721FA40480068B0F5006FF7DB46
:1015800000BF3C480068401C3A4908601E20FFF735
:1015900013FA38480068401E374951F82000B0F56A
:1015A000006F07DA08463349096850F82100B0F5A2
:1015B000006F05DC2F48006840F2F3118842E0D14B
:1015C000002400BF25E02D4951F82400FEF7F3FE6A
:1015D00005460A21FFF766FF294941F824002949F9
:1015E00051F82400FEF7E7FE05460A21FFF75AFFEF
:1015F000254941F82400204951F82400FEF7DBFE7C
:1016000005464FF4C071FFF74DFF204941F8240013
:10161000641C18480068401C8442D4DB15480168EB
:10162000491C1748FFF798FB1949086011480168E1
:10163000491C1548FFF790FB164908600D480168E2
:10164000491C1248FFF788FB1349086009480268E3
:10165000521C0E490A48FFF7C9FA104908600548AC
:101660000268521C09490848FFF7C0FA0C49086093
:1016700070BD000034000020F42700205418002022
:10168000E400002024200020B40800208410002062
:1016900054000020580000205C000020640000205E
:1016A000680000202DE9F0410546884600271348D0
:1016B000854216D10023012241462846FFF7F4F85F
:1016C000002604E02846FFF7B9F80746761C012EED
:1016D000F8DB2846FFF7B2F807463C462046BDE84F
:1016E000F0810748854206D12846FFF7A7F807464C
:1016F0003C462046F3E72046F1E700000024014085
:10170000002801402DE9FC4111480068FEF75CFE0D
:10171000044610480068FEF757FE05460E4800686C
:10172000FEF752FE06460D480068FEF74DFE0746DE
:101730000B480068FEF748FE804633463A4641466D
:101740000848CDE90054FFF7DDFDBDE8FC8100004D
:101750006800002064000020580000205400002091
:101760005C000020B41700082DE9F04106460F4642
:10177000FEF71CFF041E0D4618BF0120284320F071
:101780000040C0F17F6000F1E040C00F0ED0301C7F
:1017900018BF0120384320F00040C0F17F6000F105
:1017A000E040C00F04BF0120FFF7CCFD20462946D2
:1017B000BDE8F0813F6E6F64653D736F6C61727060
:1017C0007674782666756C6C6A736F6E3D7B2255F5
:1017D00032223A25642C224931223A25642C2249AE
:1017E00032223A25642C225031223A25642C225090
:1017F00032223A25647D00001818000800000020FD
:101800008C00000024130008A41800088C0000209D
:101810003C33000034130008000000000102030400
:10182000010203040607080902040608000000007C
:1018300000000000000000000000000000000000A8
:101840000000000000000000000000000000000098
:101850000000000000000000000000000000000088
:101860000000000000000000000000000000000078
:101870000000000000000000000000000000000068
:1018800000000000000000007265710A0000000006
:101890000000000000000000000000000000000048
:0418A0000000000044
:04000005080000ED02
:00000001FF
