:020000040800F2
:100000000034002001010008FB0B0008F30B00087E
:10001000F70B00080709000867120008000000003D
:10002000000000000000000000000000510E000869
:10003000AD0A000800000000C10C00083D0F0008D8
:100040001B0100081B0100081B0100081B01000820
:100050001B0100081B0100081B0100081B01000810
:100060001B0100081B0100081B0100081B01000800
:100070001B0100081B0100081B0100081B010008F0
:100080001B0100081B0100081B0100081B010008E0
:100090001B0100081B0100081B0100081B010008D0
:1000A0001B0100081B0100081B0100081B010008C0
:1000B0001B0100081B0100081B0100081B010008B0
:1000C0001B0100081B0100081B0100081B010008A0
:1000D0001B0100083D1000081B0100081B0100085F
:1000E0001B0100081B0100081B010008DFF80CD0F1
:1000F00000F0DEF900480047BD160008003400207B
:100100000648804706480047FEE7FEE7FEE7FEE7B1
:10011000FEE7FEE7FEE7FEE7FEE7FEE7410F000829
:10012000ED00000830B505460020034600E05B1CEA
:10013000934205D2EC5CC85C201A01D1002CF6D1A8
:1001400030BDF0B480EA0102D40F4200B2EB410F9F
:1001500002D20246084611464A0042D0C30DDDB223
:10016000C1F3C752AD1A202D35DAC1F3160141F49F
:10017000000204B15242C5F1200602FA06F12A41FA
:100180001044B3EBD05F23D0C4B1012DA0EBC3501A
:1001900009DCF0BC4FF0004202EAC352DBB200F5CA
:1001A000000000F006B9400000F1807000EBC35081
:1001B000A0F1807040EAD170490009E0490841EAA5
:1001C000C071A0EBC35000F50000400800EBC35025
:1001D000F0BC00F0E5B86142012202EB4101001BD6
:1001E000F6E7F0BC704781F00041AAE780F00040DC
:1001F000A7E780EA010210B502F00043400022D0D8
:100200004A001FD0010E01EB1261C0F35600C2F389
:10021000560240F4000042F40002A0FB0220000459
:100220007F39140400D0401C50EA124001D4400031
:10023000491EC2B20C0604EBD010401C4008802AB4
:1002400002D003E0002010BD20F00100002900DAF8
:100250000020184310BD30B480EA010202F00045CE
:1002600030F0004221F0004013D090B1C30DD40D06
:10027000C2F31601C0F31600E41A41F4000140F481
:1002800000027D34914201D3641C00E04900002C3F
:1002900002DA30BC002070474FF400000023914286
:1002A00001D3891A034340084FEA4101F7D151B104
:1002B000914202D14FF0004105E002D24FF001011E
:1002C00001E06FF0010103EBC450284430BC00F0A2
:1002D00067B8C10F80EAE0700844CA07962300217E
:1002E00000F067B800F0004220F00040C10DC0F3FC
:1002F000160040F400007F2901DA0020704796299B
:1003000003DCC1F19601C84001E096398840002A1B
:10031000F4D04042704700F0004230F000400AD074
:10032000C10D01F56071C0F3160042EA0151C20827
:1003300040071143704700200146704701F0004319
:1003400030B421F0004150EA010206D00A0DA2F5B6
:100350006072C1F31301002A02DC30BC0020704738
:10036000440F44EAC104C100E01830BC00EBC250A5
:1003700000F016B830B50B460146002020220124BB
:1003800009E021FA02F59D4205D303FA02F5491B63
:1003900004FA02F52844151EA2F10102F1DC30BD79
:1003A0000029A8BF7047401C490008BF20F0010089
:1003B000704710B4B0FA80FC00FA0CF050EA010467
:1003C00004BF10BC704749B1CCF1200421FA04F4F9
:1003D00011FA0CF118BF012121430843A3EB0C01D2
:1003E000CB1D4FEA00614FEA102042BF002010BC35
:1003F000704700EBC35010440029A4BF10BC7047E5
:10040000401C490008BF20F0010010BC70472DE9D6
:10041000F04D00231A461B1A8A4103DB00200146D7
:10042000BDE8F08DC1F30A52C1F3130141F4801508
:100430004FF0000BD10702D100186D41521E00276A
:10044000044640F2FF11384601EB620A3E46804600
:10045000024600204FF4801100F04BF8C2197141A0
:10046000BB1846EB0100B4EB030C75EB000C04D396
:10047000E41A65EB000517460E46241908F1010041
:100480006D4180463428E3DDF91946EB0600091B6F
:10049000A84103D24FF0FF32134601E00022134679
:1004A0001BEB070046EB0A51BDE8F04D00F031B8F8
:1004B000064C074D06E0E06840F0010394E80700B1
:1004C00098471034AC42F6D3FFF714FEF019000839
:1004D000101A0008202A04DB203A00FA02F100205A
:1004E00070479140C2F1200320FA03F31943904072
:1004F0007047202A04DB203A21FA02F000217047DD
:1005000021FA02F3D040C2F120029140084319467B
:10051000704710B5141E73F1000408DA401C41F155
:10052000000192185B411A4301D120F0010010BD77
:100530002DE9F04D92469B4611B1B1FA81F202E0ED
:10054000B0FA80F220329046FFF7C4FF04460F460F
:1005500040EA0A0041EA0B0153465A46084313D0C9
:10056000114653EA010019D0C8F140025046FFF786
:10057000C0FF05460E46504659464246FFF7AAFFC1
:10058000084305D0012004E020463946BDE8F08D3F
:100590000020054346EAE0762C4337430A9863057A
:1005A000E40AA0EB08000022FD0A44EA47540A309E
:1005B00002D500200146E9E7010510196941DDE98E
:1005C000084500196941BDE8F04DA2E721B18268F4
:1005D00042F00102826003E0826822F00102826040
:1005E0007047000010B50121084600F06BFB0121A7
:1005F000042000F077FB0121480200F073FB47481C
:1006000000F090F946484749086047484860002094
:1006100088600320C8600020086180204861400095
:1006200088618000C86120200862000248620020C2
:1006300088623A4800F01CFA0121384800F065F958
:1006400010203A4908800020C8700320887038487C
:1006500000F044FA0420354908800020C8700320C7
:100660008870334800F03AFA202030490880002092
:10067000C870032088702E4800F030FA28484C38A3
:1006800000F066F800202B490860012008714871CD
:100690004FF4602088600020C86003200874204860
:1006A0004C3800F097F80523012204211C484C38EF
:1006B00000F0B8F805230222114619484C3800F022
:1006C000B1F805230322194615484C3800F0AAF862
:1006D000012113484C3800F02FF8012110484C3804
:1006E000FFF774FF0E484C3800F0F8F800BF0C48D4
:1006F0004C3800F065F80028F9D109484C3800F072
:10070000FDF800BF06484C3800F050F80028F9D139
:10071000012103484C3800F0E6F810BD0800024003
:100720004C240140C0000020500000201400002094
:1007300000080140AC00002021B1826842F48072C0
:10074000826003E0826822F4807282607047000059
:1007500010B504461248844208D10121401500F02A
:10076000D1FA0021601500F0CDFA17E00D4884425F
:1007700008D10121001500F0C5FA0021201500F074
:10078000C1FA0BE00848844208D10121C80300F0F7
:10079000B9FA00214FF4004000F0B4FA10BD000097
:1007A0000024014000280140003C01400146002097
:1007B0008A6802F004020AB1012000E000207047BC
:1007C000014600208A6802F008020AB1012000E018
:1007D0000020704730B502460020002350680F4CBF
:1007E00020400D790C6844EA05242043506090684D
:1007F0000B4C2040D1E902542C434D7944EA450486
:1008000020439060D06A20F470000C7C641EE4B237
:10081000234340EA0350D06230BD0000FFFEF0FFEA
:10082000FDF7F1FFF0B504460D4600200021092D2B
:1008300011DDE068A5F10A0606EB4607072606FA71
:1008400007F18843A5F10A0606EB460603FA06F10E
:100850000843E0600CE0206905EB4507072606FA2F
:1008600007F1884305EB450603FA06F108432061CA
:10087000072A0FDA606B561E06EB86071F2606FA5C
:1008800007F18843561E06EB860605FA06F1084373
:10089000606322E00D2A0FDA206BD61F06EB860775
:1008A0001F2606FA07F18843D61F06EB860605FACF
:1008B00006F10843206310E0E06AA2F10D0606EBA2
:1008C00086071F2606FA07F18843A2F10D0606EBFC
:1008D000860605FA06F10843E062F0BD816841F042
:1008E00008018160704721B1826842F4A0028260F1
:1008F00003E0826822F4A00282607047816841F0C0
:1009000004018160704700BFFEE721B1026842F038
:100910000102026004E002684FF6FE731A400260B2
:100920007047000001684FF6FE721140016000211F
:10093000016041608160C1604B49884208D14A49E9
:100940000839496841F00F01474A083A51608AE086
:1009500045491431884208D143490839496841F072
:10096000F001414A083A51607DE03F492831884210
:1009700008D13D490839496841F470613A4A083A5A
:10098000516070E038493C31884208D13649083915
:10099000496841F47041344A083A516063E0324991
:1009A0005031884208D130490839496841F47021F2
:1009B0002D4A083A516056E02B496431884208D1EB
:1009C00029490839496841F47001274A083A5160B9
:1009D00049E025497831884208D1234908394968D6
:1009E00041F07061204A083A51603CE01F4988425A
:1009F00006D1011F096841F00F01021F116032E0AA
:100A00001A491431884208D11849091F096841F070
:100A1000F001164A121F116025E01449283188425E
:100A200008D11249091F096841F470610F4A121F69
:100A3000116018E00D493C31884208D10B49091F6B
:100A4000096841F47041094A121F11600BE007491F
:100A50005031884207D10549091F096841F47021C6
:100A6000024A121F11607047080002400804024049
:100A700010B50022026847F6F0739A430C6A8B683F
:100A800023430C6923434C6923438C692343CC697A
:100A900023434C6A23438C6A23431A430260CB6886
:100AA00043600B6883604B68C36010BD70470000F3
:100AB00010B50121082000F015F94FF40070054928
:100AC0000880032088701020C870034800F006F8E2
:100AD00010BD000014000020000C01402DE9F04181
:100AE000024600250026002000230024002791F85C
:100AF00003C00CF00F0591F803C00CF0100CBCF112
:100B0000000F03D091F802C04CEA050591F800C02F
:100B1000BCF1000F31D0146800202BE04FF0010C25
:100B20000CFA00F3B1F800C00CEA03069E4220D193
:100B300083004FF00F0C0CFA03F7BC4305FA03FCDB
:100B40004CEA040491F803C0BCF1280F06D14FF021
:100B5000010C0CFA00FCC2F814C00AE091F803C0C2
:100B6000BCF1480F05D14FF0010C0CFA00FCC2F8A3
:100B700010C0401C0828D1D31460B1F800C0BCF1EB
:100B8000FF0F34DD546800202EE000F1080C4FF018
:100B9000010808FA0CF3B1F800C00CEA03069E4203
:100BA00021D183004FF00F0C0CFA03F7BC4305FA78
:100BB00003FC4CEA040491F803C0BCF1280F05D1F2
:100BC00000F1080C08FA0CF8C2F8148091F803C080
:100BD000BCF1480F07D100F1080C4FF0010808FAEA
:100BE0000CF8C2F81080401C0828CED35460BDE831
:100BF000F08100BFFEE700BFFEE7704770B500213F
:100C000000230F22C47804B3154C246804F4E06474
:100C1000C4F5E064210AC1F10403CA40447804FA2F
:100C200003F184781440214309010E4C0678A15544
:100C3000047804F01F050124AC4005786D11AD0067
:100C400005F1E025C5F8004109E0047804F01F052E
:100C50000124AC40044D0678761145F8264070BD5D
:100C60000CED00E000E400E080E100E00249014317
:100C7000024A1160704700000000FA050CED00E028
:100C80002DE9F04706460F46154600240BE057F8BD
:100C9000241056F82400FFF7ACFA81464146FFF7CE
:100CA00050FA8046641CAC42F1DB2846FFF711FB8A
:100CB00081464146FFF79DFA80464046BDE8F087F1
:100CC0007047000029B1064A52690243044B5A6139
:100CD00004E0034A52698243014B5A6170470000A5
:100CE0000010024029B1064A92690243044B9A61FE
:100CF00004E0034A92698243014B9A617047000005
:100D00000010024029B1064AD2680243044BDA605F
:100D100004E0034AD2688243014BDA607047000066
:100D20000010024030B500210022002400232D4D88
:100D30006D6805F00C0121B1042905D0082923D1E3
:100D400005E0294D056022E0274D05601FE0254D97
:100D50006D6805F47012234D6D6805F4803402252A
:100D600005EB92421CB9214D554305600BE01D4D2A
:100D70006D6805F400351DB11C4D5543056002E05A
:100D8000194D5543056002E0174D056000BF00BFD7
:100D9000144D6D6805F0F0010909154D6B5C05688F
:100DA000DD4045600F4D6D6805F4E061090A104DA6
:100DB0006B5C4568DD4085600A4D6D6805F46051E7
:100DC000C90A0B4D6B5C4568DD40C560054D6D681B
:100DD00005F44041890B074D6B5CC568B5FBF3F525
:100DE000056130BD0010024000127A0000093D008C
:100DF00000000020100000202DE9F05F81468A46A7
:100E00004FF0000B00240BE059F8241059F824008F
:100E1000FFF7EFF905465946FFF793F98346641C3F
:100E20005445F1DB5046FFF754FA0546294658462B
:100E3000FFF711FA83465846FFF76DFA074600F0B0
:100E400085FD0546FFF77AFA83465846BDE8F09FD0
:100E5000704710B500F002F810BD00000CB500207E
:100E6000019000903348006840F4803031490860B8
:100E700000BF3048006800F4003000900198401C2A
:100E80000190009818B90198B0F5A06FF1D12948E8
:100E9000006800F4003010B10120009001E0002053
:100EA00000900098012843D12348006840F01000CA
:100EB000214908600846006820F0030008600846E1
:100EC000006840F0020008601A484068194948600C
:100ED0000846406848600846406840F480604860C2
:100EE0000846406820F47C1048600846406840F49A
:100EF000E81048600846006840F08070086000BF55
:100F00000C48006800F000700028F9D009484068DB
:100F100020F00300074948600846406840F002009E
:100F2000486000BF0348406800F00C000828F9D171
:100F30000CBD00000010024000200240704700007D
:100F400010B51348006840F00100114908600846D8
:100F50004068104908400E494860084600680E493C
:100F600008400B4908600846006820F480200860AB
:100F70000846406820F4FE0048604FF41F00886077
:100F8000FFF767FF4FF000600449086010BD0000E4
:100F9000001002400000FFF8FFFFF6FE08ED00E041
:100FA00010B501210420FFF79DFE01218803FFF702
:100FB00099FE4FF400701C4908801820C870032067
:100FC00088701A48FFF78AFD4FF480601649088040
:100FD0000420C8701548FFF781FD4FF4C060FFF78B
:100FE00045FE252012490870022088700120C87033
:100FF0000846FFF703FE4FF416500E490860002024
:101000008880C880088188810C2048810A4800F0C7
:10101000B5F80121084800F049F8012240F22551B5
:10102000054800F086F810BD1400002000080140BB
:10103000180000209C0000200038014010B540F24C
:101040002551154800F04BF820B3134800F002F981
:101050001249134A12688854084611490968405CCD
:101060000A280CD100200E49086003220D490B48C4
:10107000FFF758F870B101200B4908700AE00848E2
:101080000068401C0649086008460068042801D131
:101090000020086010BD00000038014086000020DC
:1010A00090000020800000208500002021B182896E
:1010B00042F40052828104E082894DF6FF731A40A7
:1010C0008281704702460020B1F5007F00D100BF49
:1010D00013880B400BB1012000E00020704770B571
:1010E0000246002400230025002040F66A16B14283
:1010F00000D100BFC1F3421501F01F03012606FA1B
:1011000003F3012D02D19689334006E0022D02D16E
:10111000168A334001E0968A33400C12012606FA03
:1011200004F41688344013B10CB1012000E0002013
:1011300070BDF0B50346002400260025002040F6CF
:101140006A17B94200D100BF1846C1F3421401F03A
:101150001F06012707FA06F5012C01D10C3004E027
:10116000022C01D1103000E014301AB107682F436F
:10117000076002E00768AF430760F0BD2DE9F04764
:1011800086B005460E460024A24600BFA1460027B1
:10119000B08900B100BF2F462C8A4CF6FF70044086
:1011A000F08804432C82AC894EF6F3100440B088DA
:1011B00031890843718908430443AC81AC8A4FF6F6
:1011C000FF400440B0890443AC8201A8FFF7AAFDA8
:1011D0001F48874202D1DDF810A001E0DDF80CA025
:1011E000A88900F4004040B10AEBCA0000EB0A10E5
:1011F00031684900B0FBF1F807E00AEBCA0000EBE8
:101200000A1031688900B0FBF1F86420B8FBF0F0F7
:1012100004012009642101FB1089A88900F4004021
:1012200040B1322000EBC900B0FBF1F000F0070044
:10123000044308E0322000EB09106421B0FBF1F018
:1012400000F00F0004432C8106B0BDE8F0870000D9
:101250000038014001468888C0F308007047C1F398
:1012600008028280704700BFFEE700000FB4054B04
:1012700010B503A9044A029800F01EF810BC5DF8EE
:1012800014FB0000A11500089400002002E008C82B
:10129000121F08C1002AFAD170477047002001E0F0
:1012A00001C1121F002AFBD17047000001490860EC
:1012B00070470000980000202DE9FF4F89B09B4641
:1012C0000446002506E025280BD05A460B99904786
:1012D000641C6D1C20780028F5D10DB02846BDE8AF
:1012E000F08F0027B8460122474900E0074314F871
:1012F000013F203B02FA03F00842F7D120782E2864
:1013000019D114F8010F47F004072A280ED06FF006
:101310002F022078A0F1300109290CD808EB8801B0
:1013200002EB410100EB0108641CF2E70A98641C1F
:1013300050F8048B0A9020780028CED0642808D07A
:10134000692806D075281ED05A460B9990476D1C07
:1013500058E00A994FF00A0901C90A91002802DAF7
:1013600040422D2102E0390504D52B218DF82010B3
:10137000012103E0F90704D02021F7E78A4608AEEF
:101380000DE00021FAE70A994FF00A0901C90A9114
:10139000F7E74946FEF7EEFF303106F8011D002859
:1013A000F7D1ADEB060000F12009780701D44FF02A
:1013B0000108C84502DDA8EB090000E000208046D6
:1013C000002706E008A85A46C05D0B9990476D1C9F
:1013D0007F1C5745F6DB04E030205A460B999047B6
:1013E0006D1CB8F10001A8F10108F5DC05E016F864
:1013F000010B5A460B9990476D1CB9F10001A9F1F8
:101400000109F4DC641C65E7092801002DE9F041BD
:101410004F480068FEF75DFF06464D490968481EC3
:10142000FEF757FF07464B48D0F8A81F3846FEF78F
:10143000E0FE05464748D0F8A41F2846FEF781FE87
:1014400004463146FEF707FF4249C1F8A80F40485D
:101450000068FEF73EFF06463D490968481EFEF754
:1014600038FF07463C48D0F8A81F3846FEF7C1FEB3
:1014700005463948D0F8A41F2846FEF762FE044608
:101480003146FEF7E8FE3449C1F8A80F304800683D
:10149000FEF71FFF06462E490968481EFEF719FF92
:1014A00007462E48D0F8A81F3846FEF7A2FE05468C
:1014B0002A48D0F8A41F2846FEF743FE04463146CA
:1014C000FEF7C9FE2549C1F8A80F21480068FEF7BC
:1014D00000FF06461E490968481EFEF7FAFE074649
:1014E0001F4841683846FEF784FE05461C480168DF
:1014F0002846FEF726FE04463146FEF7ACFE1849A4
:10150000486013480068FEF7E4FE06461049096883
:10151000481EFEF7DEFE0746124841683846FEF7D1
:1015200068FE05460F4801682846FEF70AFE044695
:101530003146FEF790FE0B494860054800684EF6BC
:101540006021884201DD00BFFEE7BDE8F0810000B8
:1015500048000020F8000020A410002050200020A7
:101560001C000020240000202DE9F04705460C4611
:101570002046FEF7AEFE80464FF08A412846FEF731
:1015800032FE81464146FEF734FE07460349FEF728
:1015900062FE06463046BDE8F087000000009B442E
:1015A00070B504460D46E1B20548FFF758FE00BF8E
:1015B00040210348FFF786FD0028F9D0204670BD82
:1015C000003801402DE9F041044625460026002759
:1015D000B04600203449354A126841F82200002103
:1015E0003348324A126840F8221032482F4A1268B3
:1015F00040F8221030E06D1E05212F4800F054F90C
:10160000064604212C4800F04FF9074602212A48DB
:1016100000F04AF9804624482449096850F821001E
:1016200081192148214A126840F8221020481F4998
:10163000096850F8210038441D491C4A126841F8D5
:1016400022001C481949096850F8210040441949F2
:10165000164A126841F82200002DCCD112481349D5
:10166000096850F8210090FBF4F10F480F4A126806
:1016700040F822100E480D49096850F8210090FBEF
:10168000F4F00B49094A126841F822000948074959
:10169000096850F8210090FBF4F10648034A1268EB
:1016A00040F82210BDE8F0815020002044000020C6
:1016B000F8000020A410002000240140FFF7F8F9F2
:1016C000FFF76EFCFEF78EFF032011490870002023
:1016D000104908601AE00E48007830B1012805D0A2
:1016E00002280CD0032810D10AE00EE000F0F0F838
:1016F00003200749087000200649086005E004E05F
:1017000000F00AF8FFF782FE00BF00BFE3E7000029
:10171000850000204800002070B50020574908606F
:1017200000BF0020564908600F20FFF74BFF5348C9
:101730000068401C5149086052480068B0F5006FCD
:10174000EFDC00BF0F20FFF73DFF4C480068401C56
:101750004A4908604B480068B0F5006F05DA084652
:10176000006847F230518842ECDB00BF4448006813
:10177000401C434908600F20FFF724FF3F480068E2
:10178000401C3E4908603E480068401E3D4951F8F3
:101790002000B0F5006F07DA08463949096850F8AB
:1017A0002100B0F5006F05DC3548006840F2F31108
:1017B0008842DBD1002400BF27E0334951F82400E0
:1017C000FEF787FD05464FF47A71FFF7CDFE2F49EE
:1017D00041F824002E4951F82400FEF77AFD054611
:1017E0004FF47A71FFF7C0FE2A4941F824002549D9
:1017F00051F82400FEF76DFD054640F2AB51FFF7AE
:10180000B3FE254941F82400641C1D480068401CB3
:101810008442D2DB1A480168491C1C48FFF7ECFAE5
:101820001949C1F8A40F16480168491C1948FFF767
:10183000E3FA1749C1F8A40F11480168491C16487A
:10184000FFF7DAFA0F49C1F8A40F0D480268521CDD
:1018500011490E48FFF714FA104908600848026859
:10186000521C0D490B48FFF70BFA0D4908600D4853
:101870000068401C0B49086070BD00004C0000204F
:101880004400002050200020F8000020C80800205C
:10189000A410002074180020202800201C00002024
:1018A000240000204800002010B50346002204292F
:1018B00001D1064C2288022901D1044C62880529F5
:1018C00001D1024CA288104610BD0000500000203B
:1018D0002DE9FC47164948681649FEF7BCFC8146CD
:1018E000FEF700FD0446144948681249FEF7B3FCB0
:1018F0008146FEF7F7FC05461049D1F8A80FFEF720
:10190000F1FC06460E49D1F8A80FFEF7EBFC07469E
:101910000C49D1F8A80FFEF7E5FC804633463A465D
:1019200041460948CDE90054FFF7A0FCBDE8FC871B
:1019300024000020000020411C000020A4100020F2
:10194000F800002050200020981900082DE9F041EF
:1019500006460F46FEF75BFD041E0D4618BF01202C
:10196000284320F00040C0F17F6000F1E040C00F4C
:101970000ED0301C18BF0120384320F00040C0F1C9
:101980007F6000F1E040C00F04BF0120FFF78EFC34
:1019900020462946BDE8F0813F6E6F64653D736F58
:1019A0006C61727076747861632666756C6C6A73AC
:1019B0006F6E3D7B225541435F302E3156223A25D2
:1019C000642C2249315F6D41223A25642C22493230
:1019D0005F6D41223A25642C2250315F6D57223AC7
:1019E00025642C2250325F6D57223A25647D0A000F
:1019F000101A0008000000209C0000008C12000853
:101A0000AC1A00089C000020643300009C120008FF
:101A10000000000001020304010203040607080994
:101A200002040608000000000000000000000000A2
:101A300000000000000000000000000000000000A6
:101A40000000000000000000000000000000000096
:101A50000000000000000000000000000000000086
:101A60000000000000000000000000000000000076
:101A70000000000000000000000000000000000066
:101A80000000000000000000000000000000000056
:101A90007265710A000000000000000000000000F4
:0C1AA0000000000000000000000000003A
:04000005080000ED02
:00000001FF
