:020000040800F2
:100000004830002001010008451400088310000852
:1000100041140008870D00086B1C00080000000058
:100020000000000000000000000000001D17000894
:100030002D0F0008000000004D15000809180008E9
:100040001B0100081B0100081B0100081B01000820
:100050001B0100081B0100081B0100081B01000810
:100060001B0100081B0100081B0100081B01000800
:100070001B0100081B0100081B0100081B010008F0
:100080001B0100081B0100081B0100081B010008E0
:100090001B0100081B0100081B0100081B010008D0
:1000A0001B0100081B0100081B0100081B010008C0
:1000B0001B0100081B0100081B0100081B010008B0
:1000C0001B0100081B0100081B0100081B010008A0
:1000D0001B010008411A00081B0100081B01000851
:1000E0001B0100081B0100081B010008DFF80CD0F1
:1000F00000F0E2FB00480047592A00084830002081
:100100000648804706480047FEE7FEE7FEE7FEE7B1
:10011000FEE7FEE7FEE7FEE7FEE7FEE70D18000854
:10012000ED00000830B505460020034600E05B1CEA
:10013000934205D2EC5CC85C201A01D1002CF6D1A8
:1001400030BDF0B480EA0102D40F4200B2EB410F9F
:1001500002D20246084611464A0042D0C30DDDB223
:10016000C1F3C752AD1A202D35DAC1F3160141F49F
:10017000000204B15242C5F1200602FA06F12A41FA
:100180001044B3EBD05F23D0C4B1012DA0EBC3501A
:1001900009DCF0BC4FF0004202EAC352DBB200F5CA
:1001A000000000F051B9400000F1807000EBC35036
:1001B000A0F1807040EAD170490009E0490841EAA5
:1001C000C071A0EBC35000F50000400800EBC35025
:1001D000F0BC00F030B96142012202EB4101001B8A
:1001E000F6E7F0BC704781F00041AAE780F00040DC
:1001F000A7E780EA010210B502F00043400022D0D8
:100200004A001FD0010E01EB1261C0F35600C2F389
:10021000560240F4000042F40002A0FB0220000459
:100220007F39140400D0401C50EA124001D4400031
:10023000491EC2B20C0604EBD010401C4008802AB4
:1002400002D003E0002010BD20F00100002900DAF8
:100250000020184310BD30B480EA010202F00045CE
:1002600030F0004221F0004013D090B1C30DD40D06
:10027000C2F31601C0F31600E41A41F4000140F481
:1002800000027D34914201D3641C00E04900002C3F
:1002900002DA30BC002070474FF400000023914286
:1002A00001D3891A034340084FEA4101F7D151B104
:1002B000914202D14FF0004105E002D24FF001011E
:1002C00001E06FF0010103EBC450284430BC00F0A2
:1002D000B2B8C10F80EAE0700844CA079623002133
:1002E00000F0B2B896230022114600F0ADB800F03D
:1002F000004220F00040C10DC0F3160040F40000A1
:100300007F2901DA00207047962903DCC1F19601AC
:10031000C84001E096398840002AF4D04042704736
:1003200000F0004230F000400AD0C10D01F56071CC
:10033000C0F3160042EA0151C2084007114370475A
:1003400000200146704701F0004330B421F0004125
:1003500050EA010206D00A0DA2F56072C1F3130142
:10036000002A02DC30BC00207047440F44EAC1047C
:10037000C100E01830BC00EBC25000F05CB80000D7
:10038000002801DBC0F10040002901DBC1F1004180
:1003900081427047002801DBC0F10040002901DBE9
:1003A000C1F100418842704730B50B46014600203C
:1003B0002022012409E021FA02F59D4205D303FA27
:1003C00002F5491B04FA02F52844151EA2F10102A8
:1003D000F1DC30BD2DE9F05F0546002092469B46DA
:1003E00088460646814640241BE02846414647464B
:1003F000224600F082FA53465A46C01A914110D361
:1004000011461846224600F069FA2D1A67EB0108DA
:100410004F4622460120002100F060FA17EB000948
:100420004E41201EA4F10104DFDC484631462A4635
:100430004346BDE8F09F0029A8BF7047401C490013
:1004400008BF20F00100704710B4B0FA80FC00FA39
:100450000CF050EA010404BF10BC704749B1CCF164
:10046000200421FA04F411FA0CF118BF01212143F0
:100470000843A3EB0C01CB1D4FEA00614FEA1020AB
:1004800042BF002010BC704700EBC350104400294D
:10049000A4BF10BC7047401C490008BF20F00100F9
:1004A00010BC70472DE9FE4F804681EA0300C00F63
:1004B0000C46009021F0004123F00045B8EB02000B
:1004C000A94105D24046214690461C460B460246AD
:1004D00023F00040104347D0270DC7F30A00C3F3B1
:1004E0000A510290401A019040286BDAC3F31300BE
:1004F00040F4801B0098924620B10023D2EB030AFF
:1005000063EB0B0B01985946C0F14002504600F0D6
:10051000E5F906460D4650465946019A00F0FDF9A8
:1005200010EB08006141002487EA115284EAE77366
:100530001A4340D0009A62B3019A012A4FEA075247
:1005400015DC001B61EB02014FF0004202EA07528A
:10055000CDE90042001C41F5801132462B4600F0E7
:10056000FDF903B0BDE8F08F40462146F9E7001BD6
:1005700061EB0201001C41F5801300185B4120185B
:10058000A2F5001747EB030140EAD570B6196D419B
:1005900011E06D084FEA360645EAC0754FEA07528A
:1005A000001B61EB0201001C41F5801149084FEA74
:1005B00030000019514132462B4603B0BDE8F04FE0
:1005C00000F0BDB90098012240000023D0EB0202E8
:1005D00063EBE073009821464FEAE074B8EB00004B
:1005E00061EB0401E9E783F000435BE781F0004140
:1005F00058E72DE9FE4F81EA030404F0004421F09E
:10060000004100944FF0000B23F0004350EA010436
:100610005ED052EA03045BD0C3F30A54C1F30A5517
:100620002C44A4F2F3340194A0FB0254C1F313014F
:1006300041F48011C3F3130343F4801301FB02441C
:1006400000FB034E840A970A44EA815447EA835721
:10065000A4FB076802958D0A05FB07854FEA932CDA
:1006600004FB0C542705029D4FEA065847EA16374B
:10067000B5EB08056EEB070C870E920E47EA811763
:1006800042EA8312A7FB0201B6EB0B0164EB000404
:100690002B0D43EA0C335E1844EB1C50DA465146EE
:1006A000E7FB0201C5F313044FEA0B3343EA14538B
:1006B0004FEA0432019C43EA0603A4F10C040294BD
:1006C000009CCDE900B400F049F903B0BDE8F08F1B
:1006D00000200146F9E72DE9F04D81EA030404F01A
:1006E000004B21F0004514464FF0000A23F0004172
:1006F00050EA050220D054EA01021DD0C5F30A5782
:100700000246C5F31303C1F31300C1F30A5640F4C4
:10071000801543F48013A7EB0608101BD64608F299
:10072000FD3873EB050002D308F1010801E09218CF
:100730005B41B8F1000F03DA00200146BDE8F08DFF
:1007400000204FF48011064684460EE0171B73EB21
:10075000050705D3121B63EB050306434CEA010CA6
:1007600049084FEA300092185B4150EA0107EDD189
:1007700052EA030012D082EA040083EA050108432A
:1007800005D0101BAB4106D20122002306E0002257
:100790004FF0004302E06FF0010253101AEB060025
:1007A0004CEB085110EB0A0041EB0B01BDE8F04D9A
:1007B00000F0C5B82DE9F04D00231A461B1A8A41F6
:1007C00003DB00200146BDE8F08DC1F30A52C1F3FE
:1007D000130141F480154FF0000BD10702D100182E
:1007E0006D41521E0027044640F2FF11384601EBCE
:1007F000620A3E468046024600204FF4801100F017
:100800007CF8C2197141BB1846EB0100B4EB030C34
:1008100075EB000C04D3E41A65EB000517460E4691
:10082000241908F101006D4180463428E3DDF919EF
:1008300046EB0600091BA84103D24FF0FF321346D6
:1008400001E0002213461BEB070046EB0A51BDE80E
:10085000F04D00F074B8C1F30A52C1F3130140F235
:10086000FF3341F480119A4202DA002001467047BA
:1008700040F233439A42A2F2334202DC524200F089
:100880003CB800F02BB8000030B5041E71F1000434
:1008900004DB4FF00044404264EB0101141E73F18D
:1008A000000405DB1C464FF00043524263EB040397
:1008B000994208BF904230BD064C074D06E0E06803
:1008C00040F0010394E8070098471034AC42F6D397
:1008D000FFF710FCD4500008F4500008202A04DB75
:1008E000203A00FA02F1002070479140C2F1200343
:1008F00020FA03F3194390407047202A04DB203A82
:1009000021FA02F00021704721FA02F3D040C2F12F
:1009100020029140084319467047202A06DBCB1776
:10092000203A41FA02F043EAE07306E041FA02F3AA
:10093000D040C2F12002914008431946704710B5DB
:10094000141E73F1000408DA401C41F100019218F2
:100950005B411A4301D120F0010010BD2DE9F04D9B
:1009600092469B4611B1B1FA81F202E0B0FA80F2F0
:1009700020329046FFF7B2FF04460F4640EA0A00D5
:1009800041EA0B0153465A46084313D0114653EA35
:10099000010019D0C8F140025046FFF7AEFF0546EE
:1009A0000E46504659464246FFF798FF084305D089
:1009B000012004E020463946BDE8F08D00200543C3
:1009C00046EAE0762C4337430A986305E40AA0EB35
:1009D00008000022FD0A44EA47540A3002D50020EC
:1009E0000146E9E7010510196941DDE908450019EB
:1009F0006941BDE8F04DA2E770B58C1810F8015BB5
:100A000015F0070301D110F8013B2A1106D110F8A7
:100A1000012B03E010F8016B01F8016B5B1EF9D1AB
:100A20002B0705D40023521E0DD401F8013BFAE731
:100A300010F8013BCB1A921C03E013F8015B01F89C
:100A4000015B521EF9D5A142D8D3002070BD21B15F
:100A5000826842F00102826003E0826822F00102B3
:100A60008260704710B50121084600F071FD012138
:100A7000042000F09DFD0121480200F099FD474847
:100A800000F090F946484749086047484860002010
:100A900088600320C8600020086180204861400011
:100AA00088618000C861202008620002486200203E
:100AB00088623A4800F01CFA0121384800F065F9D4
:100AC00010203A4908800020C870032088703848F8
:100AD00000F044FA0420354908800020C870032043
:100AE0008870334800F03AFA20203049088000200E
:100AF000C870032088702E4800F030FA28484C381F
:100B000000F066F800202B49086001200871487148
:100B10004FF4602088600020C860032008742048DB
:100B20004C3800F097F80523012204211C484C386A
:100B300000F0B8F805230222114619484C3800F09D
:100B4000B1F805230322194615484C3800F0AAF8DD
:100B5000012113484C3800F02FF8012110484C387F
:100B6000FFF775FF0E484C3800F0F8F800BF0C484E
:100B70004C3800F065F80028F9D109484C3800F0ED
:100B8000FDF800BF06484C3800F050F80028F9D1B5
:100B9000012103484C3800F0E6F810BD080002407F
:100BA0004C240140E801002070000020600000207B
:100BB00000080140D401002021B1826842F4807213
:100BC000826003E0826822F48072826070470000D5
:100BD00010B504461248844208D10121401500F0A6
:100BE000F7FC0021601500F0F3FC17E00D4884428B
:100BF00008D10121001500F0EBFC0021201500F0C8
:100C0000E7FC0BE00848844208D10121C80300F04A
:100C1000DFFC00214FF4004000F0DAFC10BD0000C2
:100C20000024014000280140003C01400146002012
:100C30008A6802F004020AB1012000E00020704737
:100C4000014600208A6802F008020AB1012000E093
:100C50000020704730B502460020002350680F4C3A
:100C600020400D790C6844EA0524204350609068C8
:100C70000B4C2040D1E902542C434D7944EA450401
:100C800020439060D06A20F470000C7C641EE4B2B3
:100C9000234340EA0350D06230BD0000FFFEF0FF66
:100CA000FDF7F1FFF0B504460D4600200021092DA7
:100CB00011DDE068A5F10A0606EB4607072606FAED
:100CC00007F18843A5F10A0606EB460603FA06F18A
:100CD0000843E0600CE0206905EB4507072606FAAB
:100CE00007F1884305EB450603FA06F10843206146
:100CF000072A0FDA606B561E06EB86071F2606FAD8
:100D000007F18843561E06EB860605FA06F10843EE
:100D1000606322E00D2A0FDA206BD61F06EB8607F0
:100D20001F2606FA07F18843D61F06EB860605FA4A
:100D300006F10843206310E0E06AA2F10D0606EB1D
:100D400086071F2606FA07F18843A2F10D0606EB77
:100D5000860605FA06F10843E062F0BD816841F0BD
:100D600008018160704721B1826842F4A00282606C
:100D700003E0826822F4A00282607047816841F03B
:100D800004018160704700BFFEE721B1026842F0B4
:100D90000102026004E002684FF6FE731A4002602E
:100DA0007047000001684FF6FE721140016000219B
:100DB000016041608160C1604B49884208D14A4965
:100DC0000839496841F00F01474A083A51608AE002
:100DD00045491431884208D143490839496841F0EE
:100DE000F001414A083A51607DE03F49283188428C
:100DF00008D13D490839496841F470613A4A083AD6
:100E0000516070E038493C31884208D13649083990
:100E1000496841F47041344A083A516063E032490C
:100E20005031884208D130490839496841F470216D
:100E30002D4A083A516056E02B496431884208D166
:100E400029490839496841F47001274A083A516034
:100E500049E025497831884208D123490839496851
:100E600041F07061204A083A51603CE01F498842D5
:100E700006D1011F096841F00F01021F116032E025
:100E80001A491431884208D11849091F096841F0EC
:100E9000F001164A121F116025E0144928318842DA
:100EA00008D11249091F096841F470610F4A121FE5
:100EB000116018E00D493C31884208D10B49091FE7
:100EC000096841F47041094A121F11600BE007499B
:100ED0005031884207D10549091F096841F4702142
:100EE000024A121F116070470800024008040240C5
:100EF00010B50022026847F6F0739A430C6A8B68BB
:100F000023430C6923434C6923438C692343CC69F5
:100F100023434C6A23438C6A23431A430260CB6801
:100F200043600B6883604B68C36010BD704700006E
:100F300010B50121082000F03BFB4FF4007005497B
:100F40000880032088701020C870034800F006F85D
:100F500010BD000060000020000C01402DE9F041B0
:100F6000024600250026002000230024002791F8D7
:100F700003C00CF00F0591F803C00CF0100CBCF18D
:100F8000000F03D091F802C04CEA050591F800C0AB
:100F9000BCF1000F31D0146800202BE04FF0010CA1
:100FA0000CFA00F3B1F800C00CEA03069E4220D10F
:100FB00083004FF00F0C0CFA03F7BC4305FA03FC57
:100FC0004CEA040491F803C0BCF1280F06D14FF09D
:100FD000010C0CFA00FCC2F814C00AE091F803C03E
:100FE000BCF1480F05D14FF0010C0CFA00FCC2F81F
:100FF00010C0401C0828D1D31460B1F800C0BCF167
:10100000FF0F34DD546800202EE000F1080C4FF093
:10101000010808FA0CF3B1F800C00CEA03069E427E
:1010200021D183004FF00F0C0CFA03F7BC4305FAF3
:1010300003FC4CEA040491F803C0BCF1280F05D16D
:1010400000F1080C08FA0CF8C2F8148091F803C0FB
:10105000BCF1480F07D100F1080C4FF0010808FA65
:101060000CF8C2F81080401C0828CED35460BDE8AC
:10107000F0814FF6FF710180022181700421C1705F
:10108000704700BFFEE770B502460024002500232C
:101090000020958A138B1B0445EA030626F07F4443
:1010A00004EA01068E4201D1012000E0002070BD5B
:1010B00021B1028842F00102028004E002884FF66A
:1010C000FE731A400280704721B1028842F4807298
:1010D000028004E002884FF6FF631A4002807047E6
:1010E00021B1028842F40072028004E002884FF6C7
:1010F000FF531A40028070470CB5024600200023BF
:101100000193009300920B0F019321F07F41019B0B
:101110001BB1009B1433009303E0090C009B1833B0
:101120000093009B1B680B400BB1012000E00020E6
:101130000CBD00002DE9F04385B004460D460026A5
:10114000B1460427DFF8CC80A6884FF6C070064071
:10115000684600F04DFADDF808802F48B8FBF0F043
:101160001FFA80F946EA0906A68020884FF6FE712C
:101170000840208000262949286888420CD8286821
:101180004000B8FBF0F087B2042F00DA04273E439A
:1011900009F10100208427E0E8884BF6FF718842BE
:1011A00006D1286800EB4000B8FBF0F087B209E0F8
:1011B000286800EBC00101EB0010B8FBF0F087B22B
:1011C00047F48047C7F30B0008B947F0010747F41D
:1011D000004006434FF4967009FB00F04FF47A711B
:1011E00090FBF1F0401C2084A683208840F0010091
:1011F000208026884FF6F5300640A8886989084384
:1012000006432680A88929890843208105B0BDE8C6
:10121000F083000000127A0040420F00A086010017
:1012200070B586B006460C4615460121082000F030
:10123000BFF905A8FFF71DFF2B4886421AD10121EF
:10124000480500F095F9C020ADF8140003208DF892
:1012500016001C208DF8170005A92448FFF77EFE14
:101260000121480500F094F900214FF4001000F02E
:101270008FF91AE00121880500F07AF94FF44060F7
:10128000ADF8140003208DF816001C208DF817000F
:1012900005A91648FFF762FE0121880500F078F9DC
:1012A00000214FF4800000F073F901A800F02BF842
:1012B0000020ADF808004BF6FF70ADF80A00A8B2A8
:1012C000ADF80C004FF48060ADF80E000001ADF8F1
:1012D0001000019401A93046FFF72CFF0121304690
:1012E000FFF7E6FE06B070BD00540040000C014060
:1012F00012B141F0010102E04FF6FE731940018284
:1013000070470182704741F288310160002181807D
:101310004BF6FF71C1800021018141814FF4804172
:1013200081817047F8B507460C4615461E460020D9
:101330000090002D77D04FF6FF70009004E00098E9
:10134000411E009100B970E04FF400313846FFF7BC
:10135000D3FE0028F3D101213846FFF7B5FE4FF642
:10136000FF70009004E00098411E009100B95CE01D
:101370002F493846FFF787FE0028F4D00022314677
:101380003846FFF7B5FF4FF6FF70009004E0009875
:10139000411E009100B948E026493846FFF773FE28
:1013A0000028F4D014F8011B3846FFF7AAFF13E019
:1013B0004FF6FF70009004E00098411E009100B9C4
:1013C00033E01D493846FFF797FE0028F4D014F8A3
:1013D000011B3846FFF795FF681E051EE8D14FF642
:1013E000FF70009004E00098411E009100B91CE0DD
:1013F00011493846FFF780FE0028F4D00121384615
:10140000FFF76EFE4FF6FF70009005E00098411E5A
:10141000009108B909E006E007490C310748FFF7D9
:101420006BFE0028F2D10120F8BD0020FCE700008F
:101430000100030082000700040000100054004077
:1014400000BFFEE77047000070B5002100230F22A7
:10145000C47804B3154C246804F4E064C4F5E06473
:10146000210AC1F10403CA40447804FA03F18478E4
:101470001440214309010E4C0678A155047804F06C
:101480001F050124AC4005786D11AD0005F1E02584
:10149000C5F8004109E0047804F01F050124AC40C0
:1014A000044D0678761145F8264070BD0CED00E03D
:1014B00000E400E080E100E002490143024A1160DB
:1014C000704700000000FA050CED00E02DE9F04146
:1014D00005460E461446002731462846FEF789FE8B
:1014E000804641462046FEF7B6FE07463846BDE830
:1014F000F0812DE9F05F06460F4614464FF00008D4
:101500004FF03B09002513E005EB090090FBF4F0D8
:1015100005EB090100FB141A57F82A1056F82500AC
:10152000FEF767FE83464146FEF70BFE80466D1CC4
:10153000A542E9DB2046FEF7CCFE834659464046ED
:10154000FEF789FE80464046BDE8F09F70470000E8
:1015500029B1064A52690243044B5A6104E0034A26
:1015600052698243014B5A617047000000100240EB
:1015700029B1064AD2690243044BDA6104E0034A06
:10158000D2698243014BDA617047000000100240CB
:1015900029B1064A12690243044B1A6104E0034A66
:1015A00012698243014B1A6170470000001002402B
:1015B00029B1064A92690243044B9A6104E0034A46
:1015C00092698243014B9A6170470000001002400B
:1015D00029B1064AD2680243044BDA6004E0034AA8
:1015E000D2688243014BDA6070470000001002406D
:1015F00030B500210022002400232D4D6D6805F038
:101600000C0121B1042905D0082923D105E0294D79
:10161000056022E0274D05601FE0254D6D6805F44B
:101620007012234D6D6805F48034022505EB92425B
:101630001CB9214D554305600BE01D4D6D6805F447
:1016400000351DB11C4D5543056002E0194D554351
:10165000056002E0174D056000BF00BF144D6D68C6
:1016600005F0F0010909154D6B5C0568DD4045602A
:101670000F4D6D6805F4E061090A104D6B5C45681B
:10168000DD4085600A4D6D6805F46051C90A0B4D57
:101690006B5C4568DD40C560054D6D6805F44041F3
:1016A000890B074D6B5CC568B5FBF3F5056130BD73
:1016B0000010024000127A0000093D0000000020E6
:1016C000100000202DE9F05F81468A464FF0000BA4
:1016D00000240BE059F8241059F82400FEF789FD86
:1016E00005465946FEF72DFD8346641C5445F1DB43
:1016F0005046FEF7EEFD054629465846FEF7ABFD7F
:1017000083465846FEF70CFE074601F03BFC0546B3
:10171000FEF719FE83465846BDE8F09F704710B5A6
:1017200000F002F810BD00000CB500200190009000
:101730003348006840F480303149086000BF3048C9
:10174000006800F4003000900198401C019000985F
:1017500018B90198B0F5A06FF1D12948006800F4DC
:10176000003010B10120009001E0002000900098AE
:10177000012843D12348006840F010002149086047
:101780000846006820F0030008600846006840F042
:10179000020008601A4840681949486008464068D5
:1017A00048600846406840F48060486008464068E9
:1017B00020F47C1048600846406840F4E810486017
:1017C0000846006840F08070086000BF0C48006860
:1017D00000F000700028F9D00948406820F00300AC
:1017E000074948600846406840F00200486000BF72
:1017F0000348406800F00C000828F9D10CBD000037
:1018000000100240002002407047000010B513484D
:10181000006840F00100114908600846406810491E
:1018200008400E494860084600680E4908400B49C8
:1018300008600846006820F4802008600846406878
:1018400020F4FE0048604FF41F008860FFF767FF38
:101850004FF000600449086010BD00000010024015
:101860000000FFF8FFFFF6FE08ED00E03EB50121A5
:101870000420FFF77DFE684600F08AF84FF6FF70FF
:10188000ADF804000020ADF80000ADF80600ADF89A
:1018900002006946094800F029F80948006809492A
:1018A000B0FBF1F0401E84B201222146034800F053
:1018B00017F80121014800F007F83EBD000800407C
:1018C0004800002040420F0021B1028842F001028E
:1018D000028004E002884FF6FE731A4002807047CF
:1018E000018582827047818470470000002202884F
:1018F0001D4B98420ED01D4B98420BD0B0F1804F3B
:1019000008D01B4B984205D01A4B984202D01A4B74
:10191000984204D14FF68F731A404B881A43174BE5
:10192000984207D0164B984204D04FF6FF431A4016
:10193000CB881A4302808B8883850B8803850A4BEA
:1019400098420BD0094B984208D00E4B984205D0D4
:101950000D4B984202D00D4B984201D10B7A038671
:101960000123838270470000002C014000340140B5
:101970000004004000080040000C0040001000403F
:101980000014004000400140004401400048014074
:101990004FF6FF71818000210180C180418001727A
:1019A0007047000010B501210420FFF701FE01215E
:1019B0008803FFF7FDFD4FF400701C4908801820D4
:1019C000C870032088701A48FFF7C8FA4FF4806087
:1019D000164908800420C8701548FFF7BFFA4FF475
:1019E000C060FFF769FD2520124908700220887049
:1019F0000120C8700846FFF727FD4FF416500E4926
:101A0000086000208880C880088188810C20488177
:101A10000A4800F0B5F80121084800F049F8012211
:101A200040F22551054800F086F810BD6000002006
:101A30000008014014000020B801002000380140D7
:101A400010B540F22551154800F04BF820B313486B
:101A500000F002F91249134A1268885408461149E5
:101A60000968405C0A280CD100200E490860032256
:101A70000D490B48FEF756FB70B101200B49087069
:101A80000AE008480068401C0649086008460068EB
:101A9000042801D10020086010BD0000003801407A
:101AA0003A000020440000203400002039000020CB
:101AB00021B1828942F40052828104E082894DF68C
:101AC000FF731A408281704702460020B1F5007F03
:101AD00000D100BF13880B400BB1012000E00020B3
:101AE000704770B50246002400230025002040F610
:101AF0006A16B14200D100BFC1F3421501F01F03C5
:101B0000012606FA03F3012D02D19689334006E03F
:101B1000022D02D1168A334001E0968A33400C121E
:101B2000012606FA04F41688344013B10CB10120E2
:101B300000E0002070BDF0B503460024002600251B
:101B4000002040F66A17B94200D100BF1846C1F321
:101B5000421401F01F06012707FA06F5012C01D1F6
:101B60000C3004E0022C01D1103000E014301AB126
:101B700007682F43076002E00768AF430760F0BDC6
:101B80002DE9F04786B005460E460024A24600BF68
:101B9000A1460027B08900B100BF2F462C8A4CF621
:101BA000FF700440F08804432C82AC894EF6F31099
:101BB0000440B08831890843718908430443AC81EB
:101BC000AC8A4FF6FF400440B0890443AC8201A8C0
:101BD000FFF70EFD1F48874202D1DDF810A001E09B
:101BE000DDF80CA0A88900F4004040B10AEBCA005F
:101BF00000EB0A1031684900B0FBF1F807E00AEB8E
:101C0000CA0000EB0A1031688900B0FBF1F86420CB
:101C1000B8FBF0F004012009642101FB1089A889B8
:101C200000F4004040B1322000EBC900B0FBF1F0FD
:101C300000F00700044308E0322000EB09106421A3
:101C4000B0FBF1F000F00F0004432C8106B0BDE8BA
:101C5000F08700000038014001468888C0F3080082
:101C60007047C1F308028280704700BFFEE70000A2
:101C70000FB4054B10B503A9044A029800F0F4F81C
:101C800010BC5DF814FB000035290008B0010020ED
:101C90000FB4084B10B504A902AA039800F0E4F8A9
:101CA000044602A9002000F076FC204610BC5DF836
:101CB00014FB00009725000802E008C8121F08C1A5
:101CC000002AFAD170477047002001E001C1121FBD
:101CD000002AFBD1704700000149086070470000EE
:101CE000B40100202DE9FF5F82B00021DDE904305E
:101CF000020DDDF840B0034318D044F61050A2F2B4
:101D0000FF3242431514119801281FD0A5EB0B0098
:101D1000401C5FEA000A4FF000064E4FDFF8389192
:101D2000B046504615D5CAF1000413E011980124BD
:101D30004AA3012801D16FEA0B010298119AC0E968
:101D40000031C0E9024206B0BDE8F09FCBF10000CF
:101D5000DFE704460021404A491842EB0450CDE930
:101D6000001012E0E00707D032463B4640464946A5
:101D7000FEF73FFC8046894632463B4610461946F0
:101D8000FEF737FC06460F466410002CEAD1DDE969
:101D90000401DDE90023BAF1000F06DAFEF729FCA1
:101DA00042464B46FEF725FC05E0FEF794FC424612
:101DB0004B46FEF790FC04460E460022284BFEF7E9
:101DC00063FD03D84FF0FF30014607E00022254BAA
:101DD00020463146FEF766FBFEF73DFD102409E084
:101DE000002C0ADB0A220023FEF7F4FA039B3032B0
:101DF0001A55641E50EA0102F2D1641C039AC4F120
:101E000011031444119A012A03D0012208430DD171
:101E10000AE0084304D000204FF0110B119072E744
:101E2000A3EB0B056D1E0DE05B4504DD4FF00002DA
:101E300005F1010504E003DA4FF00002A5F1010508
:101E4000002AECD002981199C0E90231C0E900459E
:101E500079E70000000014400000F03F300000006F
:101E60000000F0430000E03F2DE9FF4F95B09B4696
:101E70008946064600250FE2252877D1002427460B
:101E8000F84A0121059400E0044316F8013F203B85
:101E900001FA03F01042F7D130782A2811D06FF000
:101EA0002F033078A0F13002092A16D8059A44F0A1
:101EB000020402EB820203EB42021044761C0590FE
:101EC000EFE759F8042B0592002A03DA504244F454
:101ED0000054059044F00204761C30782E2816D168
:101EE00016F8010F44F004042A280DD06FF02F02D9
:101EF0003078A0F13003092B09D807EB870302EBF8
:101F00004303C718761CF3E759F8047B761C307836
:101F10006C280FD006DC4C2817D068280DD06A2812
:101F200014D104E0742810D07A280FD10DE044F4C5
:101F300000140AE044F4801401E044F44014727880
:101F4000824202D104F58014761C761C3078662813
:101F50000BD013DC582877D009DC002875D0452831
:101F6000F6D04628F4D047281AD19DE118E063281E
:101F700035D0642879D0652812D195E1702873D0C6
:101F800008DC6728F1D069286FD06E280DD06F2843
:101F900006D1B5E073282CD0752875D0782874D078
:101FA0005A46179990476D1C75E1C4F302500228F8
:101FB00009D003280DD0D9F8001004280DD00D60E9
:101FC00009F1040967E1D9F80010EA17C1E90052E4
:101FD000F6E7D9F800100D80F2E70D70F0E719F878
:101FE000041B8DF8001000208DF80100EA46012046
:101FF00003E059F804AB4FF0FF3061074FF00001E8
:1020000002D40DE008F101018846B9420FDA80459B
:10201000F8DB1AF808100029F4D108E008F10101F2
:1020200088468142FADB1AF808100029F6D1059893
:102030005B46A0EB080721463846179A00F094FA51
:10204000284400EB080507E04DE029E10DE01AF80F
:10205000010B5A4617999047B8F10108F7D25B4631
:1020600021463846179A13E142E00A220092C4F34F
:1020700002524FF0000A022A08D059F804CB032A72
:102080004FEAEC710AD00DE029E02AE009F10701DE
:1020900021F00702F2E802C1914609E00FFA8CFC38
:1020A0004FEAEC71042A03D14FFA8CFC4FEAEC7131
:1020B000002907DA0A460021DCF1000C61EB02017D
:1020C0002D2202E0220504D52B228DF804200122C6
:1020D00003E0E20701D02022F7E7904659E00A2109
:1020E00002E010220DE010214FF0000A00910BE0F9
:1020F00010224FF0000A44F004040827009203E085
:1021000008224FF0000A0092C4F30252022A05D0BE
:1021100059F804CB0021032A08D009E009F107018E
:1021200021F00702F2E802C1914605E01FFA8CFC9B
:10213000042A01D10CF0FF0C4FF00008220728D52B
:10214000702806D0009B83F0100353EA0A0305D0E1
:102150000EE040228DF80420012208E05CEA010232
:1021600006D030228DF804208DF80500022290461A
:10217000009B83F0080353EA0A030AD15CEA0102D8
:1021800001D1620705D530228DF804204FF00108F7
:102190007F1E582804D034A003900EA802900DE0B2
:1021A00036A0F9E753466046009AFEF713F98446D5
:1021B0000398825C0298401E029002705CEA010063
:1021C000F0D1029806A9081A00F1200A600702D58A
:1021D00024F4803400E00127574502DDA7EB0A0014
:1021E00000E0002000EB0A01009005984144401AED
:1021F0000590E00306D45B462146179A059800F047
:10220000B3F90544002706E001A85A46C05D1799B6
:1022100090476D1C7F1C4745F6DBE0030CD55B4601
:102220002146179A059800F09FF9054404E03020F4
:102230005A46179990476D1C0099481E0090002936
:10224000F5DC08E0029802995A460078491C029190
:10225000179990476D1CBAF10001AAF1010AF1DC4F
:1022600065E100000928010030313233343536375A
:1022700038396162636465660000000030313233D2
:102280003435363738394142434445460000000072
:1022900000F058F90544761C307800287FF4ECAD46
:1022A00019B02846BDE8F08F620700D4062709F16F
:1022B000070222F0070CFCE80223E14603F0004885
:1022C0005FEA080C02D00FF2702C0DE05FEA045CAC
:1022D00002D50FF2682C07E05FEAC47C02D00FF24F
:1022E000602C01E0AFF2700C4FF0FF3823F0004398
:1022F000CDF850C065280CD006DC452809D046280A
:102300001DD047283DD13DE0662818D067287ED1F2
:1023100038E00021112F01DB112000E0781CCDE90D
:10232000000106A90EA8FFF7DDFCDDE90F010E9AFA
:1023300003910021009207F1010A04914DE04FF052
:1023400000400097CDE9011006A90EA8FFF7CAFCCE
:10235000DDE90F0203920E9B11990022DDF80CA01B
:102360000093049211B9791C00EB010AB7EB0A0043
:1023700004D4C0F1FF3007F1010A0490AAEB070072
:10238000019044E0012F00DA01270021112F01DD27
:10239000112000E03846CDE9000106A90EA8FFF79C
:1023A000A1FCDDE90F010E9A039100210491009236
:1023B000BA4621070CD40399514500DA8A46BAF18E
:1023C000010F05DD009AAAF10101515C302908D006
:1023D000B84202DA10F1040F06DA0121CDE901104A
:1023E00015E0AAF10101E9E7002805DC04990144A0
:1023F0000491AAEB000102E0411C514500DD8A4630
:102400000499401A401C01904FF0004002902007B0
:1024100004D40198504501DBCDF8048000208DF8EC
:102420004F0002980DF14F07B0F1004F25D02B203F
:102430000E9002984FF0020800280CDA40420290F9
:102440002D200E9007E00A210298FDF7ADFF3031F4
:10245000029007F8011DB8F10001A8F10108F2DCB3
:1024600002980028EFD1791E0E980870307800F09D
:10247000200040F0450007F8020D12A8C01B00F133
:1024800007081498007800B1012000EB0A010198B8
:1024900001EBE07105984144401A401E0590E003AD
:1024A00006D45B462146179A059800F05DF805446E
:1024B0001498007818B15A46179990476D1CE0039C
:1024C00024D55B462146179A059800F04DF805443F
:1024D0001CE00498002807DBDDE90301884203DDE6
:1024E0000098405C179901E0179930205A469047B0
:1024F000049805F10105401C04900198401E0190CC
:1025000004D12E205A46179990476D1CBAF100014C
:10251000AAF1010ADDDC05E017F8010B5A4617990C
:1025200090476D1CB8F10001A8F10108F4DC5B468E
:102530002146179A0598ABE62D0000002B000000FD
:10254000200000002DE9F041044600251E461746F4
:10255000880404D405E039462020B0476D1C641E71
:10256000F9D52846BDE8F0812DE9F0410446002563
:102570001E469046C80301D5302700E02027880476
:1025800004D505E041463846B0476D1C641EF9D5B8
:102590002846BDE8F0810A68531C0B601070704734
:1025A0002DE9F0413148D0F8BC0B3049C1F8C00BDF
:1025B0002F48D0F8BC0B2E49C1F8C00B2D4800683D
:1025C000FDF787FE06462B490968481EFDF781FE88
:1025D00007462948D0F8C01B3846FDF70AFE0546D5
:1025E0002548D0F8BC1B2846FDF7ABFD0446314614
:1025F000FDF731FE2049C1F8C00B1E480068FDF709
:1026000068FE06461B490968481EFDF762FE07463C
:102610001948D0F8CC1B3846FDF7EBFD05461648A7
:10262000D0F8C81B2846FDF78CFD04463146FDF75F
:1026300012FE1149C1F8CC0B104800680F494860E0
:102640000F4800680E4948600C4880680B49C86014
:102650000B4880680A49C86006480068B0F5FA7FF0
:1026600002DD002003490860BDE8F081140200206B
:10267000D80D00206C0000209C1900206C25002043
:102680007C2500202DE9F04104460D460026A4F5E6
:10269000006068434FF49B6190FBF1F73846FDF70B
:1026A00018FE06463046BDE8F08100003EB5012127
:1026B0000846FEF75DFF6846FFF76AF94FF6FF70C0
:1026C000ADF804000020ADF80000ADF80600ADF84C
:1026D000020069464FF08040FFF708F9084800689B
:1026E0000849B0FBF1F0401E84B201222146900758
:1026F000FFF7F6F801218807FFF7E6F83EBD000076
:102700004800002040420F0010B5044600214FF061
:102710008040FFF7E8F800BF4FF08040808CA04277
:10272000FADD10BD70B586B0554800F0F7FC00BF6B
:102730005449534800F03BFE5349D1F8C00BFDF714
:10274000EFFD044622460B4650A101A8FFF7A0FA70
:1027500001AB38227F214A4800F0B4FC4F49D1F840
:10276000C00B4F49FDF777FD0646FDF7D9FD04463E
:1027700022460B464BA101A8FFF78AFA01AB2A2299
:102780007F213F4800F09EFC4A49D1F8C00B4449E4
:10279000FDF761FD0646FDF7C3FD044622460B46E4
:1027A00045A101A8FFF774FA01AB1C227F21344830
:1027B00000F088FC444948683949FDF74CFD06465D
:1027C000FDF7AEFD044622460B4640A101A8FFF7E7
:1027D0005FFA01AB0E227F21294800F073FC3F49CC
:1027E00048682F49FDF737FD0646FDF799FD044679
:1027F00022460B463AA101A8FFF74AFA01AB002294
:102800007F211F4800F05EFC1F49D1F8CC0BFDF77B
:1028100087FD044622460B4635A101A8FFF738FA8A
:1028200001AB1C223521164800F04CFC2649C86833
:10283000FDF776FD044622460B4631A101A8FFF7BD
:1028400027FA01AB0E2235210D4800F03BFC23494D
:10285000C868FDF765FD044622460B462BA101A87A
:10286000FFF716FA01AB00223521054800F02AFCDB
:10287000034800F056FD00287FF45AAF06B070BD43
:102880008C250020014200089C1900205541435F1F
:1028900056203D2025332E31660000001402002012
:1028A00000007A4449315F41203D2025312E3366B6
:1028B00000000000D80D002049325F41203D202556
:1028C000312E3366000000006C25002050315F5728
:1028D000203D2025322E3266000000007C2500209D
:1028E00050325F57203D2025322E32660000000016
:1028F000665F487A203D2025322E326600000000B7
:10290000504631203D2025322E326600504632207E
:102910003D2025322E32660010B5034A0349044893
:1029200000F0AEFC10BD0000C93500082C010020ED
:102930008C25002070B504460D46E1B20548FFF72E
:1029400090F900BF40210348FFF7BEF80028F9D0F6
:10295000204670BD003801402DE9F041044625466F
:1029600000260027B04600203649374A126821F871
:1029700012003649344A126821F812003449324AAA
:10298000126821F8120033E00521324800F078FA8D
:10299000064604212F4800F073FA074602212D480D
:1029A00000F06EFA804627482749096830F8110080
:1029B00030442449244A126821F81200234822494D
:1029C000096830F81100384481B220481E4A126864
:1029D00020F812101E481C49096830F811004044C4
:1029E00081B21B48184A126820F81210681E85B27E
:1029F000002DC9D113481449096830F8110090FB23
:102A0000F4F081B20F48104A126820F812100F48F3
:102A10000D49096830F8110090FBF4F081B20B48C1
:102A2000094A126820F8121009480749096830F865
:102A3000110090FBF4F00649034A126821F81200D5
:102A4000BDE8F0819C1900206400002014020020E1
:102A5000D80D0020002401400024FEF769FAFEF79B
:102A6000A1FF00F0EBF9FFF757FF032014490870AE
:102A7000002014490860FFF755FE20E01048007858
:102A800030B1012805D002280CD0032816D10AE065
:102A900014E000F007FA00200A4908600320084902
:102AA00008700BE00AE0641C00F00EF8FFF778FDF8
:102AB000322C02DDFFF736FE002400BF00BFDDE749
:102AC000390000206C0000202DE9F0470025002689
:102AD0000021CB48FEF707FF0020CA49086000BF6D
:102AE0000F20FFF739FFC84805880F20FFF734FF94
:102AF000C5480688701B022801DAAE42F0DA701B66
:102B000010F1020F01DDAE42EADBAE4201DB01272C
:102B100000E000274FF00008EFB3012F78D100212B
:102B2000B748FEF7E0FE00BFB6480068401CB54954
:102B300008600F20FFF710FFB2480068401EB2493E
:102B400031F81000A84206DA0846AE49096830F8A4
:102B50001100A84205DAAB48006840F2F311884240
:102B600007D14FF00108A64824300088A649A1F8F3
:102B7000C40BA3482430008846F2A811884209DA21
:102B8000B8F1000FD0D0A048B0F8C40B43F698219C
:102B90008842C9DB3CE0FFE700219948FEF7A3FE2D
:102BA00000BF98480068401C964908600F20FFF756
:102BB000D3FE94480068401E934931F81000A842A3
:102BC00006DD08468F49096830F81100A84205DD86
:102BD0008C48006840F2F311884207D14FF0010899
:102BE0008748243000888849A1F8C40B84482430E1
:102BF000008846F2A811884209DAB8F1000FD0D057
:102C00008148B0F8C40B43F698218842C9DB00BF65
:102C100000BF002400BF20E07C4931F8140040F2DE
:102C20002E41FFF72FFD0146794840F824107949DD
:102C300031F8140040F22E41FFF724FD014676489A
:102C400040F82410704931F814004FF4EC71FFF78C
:102C500019FD724941F82400641C6A480068401C50
:102C60008442D9DB67480168491C6C48FEF72AFD9D
:102C70006549C1F8BC0BD1F8BC0B6949FDF780FB75
:102C800015D200206049C1F8BC0B00240AE00021E5
:102C90005F4840F82410604840F824105F4840F82E
:102CA0002410641C57480068401C8442EFDB5548E0
:102CB0000168491C5648FEF705FD5449C1F8BC0B94
:102CC00050480168491C5448FEF7FCFC5149C1F8C2
:102CD000BC0B4C480168491C5048FEF7F3FC4A49BC
:102CE000C1F8BC0B0846B0F8C40B00281BDD084631
:102CF000B0F8C40B46F2A811884214DA4249D1F860
:102D0000BC0B4749FDF746FB0DD23F49B1F8C40B58
:102D1000FDF7E8FA814649464248FDF79CFA3A49F0
:102D2000C1F8C80B03E000203749C1F8C80B35488B
:102D30000268521C39493648FEF7DBFB3A49086005
:102D400030480268521C35493348FEF7D2FB3749F8
:102D50000860354B1A682D4BD3F8BC1B2A4BD3F8AF
:102D6000BC0BFEF7B3FB30498860304B1A68294B27
:102D7000D3F8BC1B244BD3F8BC0BFEF7A7FB2B49A5
:102D800088602B480068401C294908602948007861
:102D9000012826D11D48D0F8C00B1C49C1F8BC0B36
:102DA0001C48D0F8C00B1B49C1F8BC0B1648D0F822
:102DB000C00B1549C1F8BC0B0846D0F8CC0BC1F8C4
:102DC000C80B1948406818490860184840681749F6
:102DD00008601548C068144988601448C0681349E1
:102DE00088600949D1F8C80B1349FDF7D3FA05D219
:102DF0000548D0F8C80B0449C1F8C80BBDE8F087F6
:102E000000080040640000209C19002014020020EB
:102E1000FC050020D80D0020C0110020841D0020DA
:102E20000000C842002474496C2500207C25002045
:102E30006C000020390000200000704210B5FDF742
:102E400011FEFEF713FD00200849C1F8C00BC1F8C0
:102E5000CC0B0749C1F8C00B0649C1F8C00B0649A5
:102E60004860C86005494860C86010BD9C190020D2
:102E700014020020D80D00206C2500207C250020A5
:102E80000246002000BF042901D1054B1888022901
:102E900001D1034B5888052901D1014B988870470F
:102EA000700000202DE9F04F93B02E49C868FDF75F
:102EB00037FA04460D462C49C868FDF731FA064634
:102EC0000F462A49D1F8CC0BFDF72AFA80468946ED
:102ED000244948682649FDF7BEF90B90FDF707FA2B
:102EE0002149119048682249FDF7B5F90B90FDF78B
:102EF000FEF920491090D1F8C00B1D49FDF7ABF940
:102F00000B90FDF70DFA82468B461B49D1F8C00B9A
:102F10001749FDF7A0F90B90FDF702FACDE90E0174
:102F20001249D1F8C00BFDF7FBF9CDE90689CDE9CF
:102F30000867CDE90A45CDE90C01DDE91001CDE9CD
:102F400002ABCDE90401DDE90E01CDE900010B483A
:102F5000DDE90C23FEF78CFE00200949086013B060
:102F6000BDE8F08F7C2500206C2500209C190020F6
:102F700000007A44D80D00201402002054500008AC
:102F80006C0000202DE9F04106460F46FDF712FCCB
:102F9000041E0D4618BF0120284320F00040C0F158
:102FA0007F6000F1E040C00F0ED0301C18BF012040
:102FB000384320F00040C0F17F6000F1E040C00FD6
:102FC00004BF0120FEF788FE20462946BDE8F081B7
:102FD00010B50A20FFF798FB10BD10B50446204637
:102FE000616800F05BF908B9002010BD204600F0D0
:102FF00007FA0120F9E770B504460E46A06800F014
:10300000DAFE20B1012813D0022810D100E000BF61
:103010003078E077707884F82000F07840B220773C
:10302000307940B26077707940B2A07715E000BF88
:10303000357805F00F00A077A07F801E40B2A07702
:103040002D116577757805F00F0084F820002D119B
:10305000E577B5782D11257700BF00BF70BD10B59D
:1030600004464FF47A71614388B2FFF74DFB10BDFF
:103070002DE9FC4104460D4616461F46DDF820802A
:10308000CDE9007833462A462046616800F002F810
:10309000BDE8FC812DE9F0470546884616461F46E7
:1030A000DDE9089A05F12D042670677084F8039015
:1030B00084F802A023463B224146284600F074FAD9
:1030C000BDE8F0872DE9F04706460F4690461C46BE
:1030D0004FF000093046716A8847A8EB000000F005
:1030E000FF080DE0237842463946304600F0A4FD43
:1030F0000546781BC7B209EB050000F0FF09641C08
:1031000020780028EED14846BDE8F08700210177FD
:10311000C17780F8201041778177704710B5044659
:103120002046616800F001F810BD70B504460D46F8
:103130000220616B88470120616B884700231422BD
:103140002946204600F030FA04F1380317222946B8
:10315000204600F029FA0020616B884770BD2DE9F8
:10316000FC5F05460F46AC68A86800F024FE834665
:10317000A86800F0F6FD0190FF200090BBF1010F60
:1031800001D10F200090A86800F0FEFD8246A868DB
:1031900000F0E0FD8146A86800F0C5FD0646612FFD
:1031A00005DB002E03DD34444FF0610A0CE0A86813
:1031B00000F0B2FD0646412F05DB002E03DD34444E
:1031C0004FF0410A00E011344F4505DD2846FFF776
:1031D0009DFF0020BDE8FC9FD046C8451CDC00BF19
:1031E0002078FF2801D1641C0DE0B84505D12146A7
:1031F0002846FFF700FF2046ECE7A078009908403A
:10320000044401980444C84500D104E008F10100D9
:1032100000F0FF08E4E700BF2846FFF777FF002033
:10322000D8E738B504460D466B4647222946204666
:1032300000F0BAF99DF8000038BD70B504460D469F
:10324000002348222946204600F0AEF970BD38B56B
:1032500004460D466B4646222946204600F0A4F956
:103260009DF8000038BD2DE9F04105460C46164694
:103270000023324601212846A768B847BDE8F081FF
:1032800070B504460E461546204600F0BFFD666048
:10329000606885602046FFF7A0FE70BD70B50446EB
:1032A0000D460220616B884700230A2229462046EA
:1032B00000F07AF906460320616B88470020616BB5
:1032C0008847304670BD2DE9F04704460E46174644
:1032D0009846DDF820903D4605EB0900C5B2681E12
:1032E000C5B23B22115D3922105D2B463A4600F0F3
:1032F000B1FD10B90020BDE8F087354605EB0800A8
:10330000C5B2681EC5B23A22115D94F838002B464A
:10331000324600F09FFDEEE710B50120FFF7F4F90B
:1033200010BD10B50446A06910B12046A1698847B8
:103330002046616800F001F810BD70B504460E46E5
:103340000220616B88470120616B884700231522AA
:103350003146204600F028F9054635B104F138031E
:1033600017223146204600F01FF90020616B884784
:10337000284670BD2DE9F04105460C46164600234F
:10338000324602212846A768B847BDE8F0812DE9FA
:10339000F04105460C4616460023324603212846D6
:1033A000A768B847BDE8F08131221154704770B565
:1033B00004460D46A068A84206D0A560204600F04D
:1033C00038F8204600F002F870BD00000149416263
:1033D00070470000E53D000870B505460C46002327
:1033E000012204212846A668B04770BD70B5054685
:1033F0000C4600231A4604212846A668B04770BD33
:1034000010B5044620466168FFF721FF2070204672
:103410006168FFF706FF607020466168FFF70DFFE7
:10342000E07404F1380317222046616800F0BCF80C
:1034300010BD70B50446A06800B970BD94F82800AE
:1034400058B9A06800F061FC40B284F82900A06877
:1034500000F0C0FC84F82A0018E094F82800012845
:103460000AD1A06800F097FC84F82900A06800F059
:103470009AFC84F82A0009E0A06800F05BFC84F85C
:103480002900A06800F05EFC84F82A0014F9290FD6
:1034900094F90110401A85B2A078293C402804D044
:1034A000EDB294F82B004543AD1184F82C5000BFC9
:1034B000C3E72DE9F04105460C4616460023324687
:1034C00005212846A768B847BDE8F0812DE9F041FD
:1034D00006460F4615464FF0000800BF2C78B8F19D
:1034E000000F0DD1FF2C08D0224639463046FFF799
:1034F000E0FF002844D1BDE8F0814FF001083FE033
:10350000FF2C07D1224639463046FFF7D2FF68BB71
:103510000020F0E7FE2C00D134E0F02C2EDAE02C75
:1035200006DB04F00F0239463046FFF723FF25E0A3
:10353000D02C06DB04F00F0239463046FFF727FF98
:103540001CE0C02C13DB39463046FFF74FFF04F078
:103550000F042401A01CC4B22046FFF780FD3946A9
:103560003046FFF739FF2046FFF779FD06E0BE2C15
:1035700004DA7F2C02DC2046FFF771FD4FF00008D3
:103580006D1CABE700BF0120B5E72DE9F041054612
:103590000C4616461F463B46324606212846D4F8BE
:1035A00008C0E047BDE8F0812DE9F04105460C4632
:1035B00016461F463B46324621462846D4F800C0F0
:1035C000E047BDE8F08100002DE9F0439FB081465F
:1035D0000D4614461F46082D41D2DFE805F00405CC
:1035E0000F401A1B2A2B3AE000221F491F48FDF703
:1035F00017FEFFF75BF8FFF78FFE30E01CB90020E5
:103600001B49087002E0402019490870FFF7E0FCF0
:1036100025E024E0164800788DF878008DF8794090
:10362000782302221EA91148FDF77CFEFFF774FEE5
:1036300015E000BFB8460E4800788DF8000001265E
:1036400004E018F8010B0DF80600761CA642F8DD20
:103650007823621C69460548FDF764FE00BF00BF81
:1036600001201FB0BDE8F083400D0300005800406A
:103670005C00002010B5044607290AD2DFE801F0FB
:10368000050409060907080003E002E001E000E084
:1036900000BF00BF012010BD2DE9F04180460E465D
:1036A00017461C4675683B2F1CD00EDC152F31D0F9
:1036B00006DC0A2F25D00B2F24D0142F44D122E072
:1036C000172F32D0322F3FD116E0462F32D004DCF4
:1036D0003C2F35D03D2F37D133E0472F2DD0482F09
:1036E00032D12FE02146284600F0E2FC18B12146F5
:1036F000284600F0F9FB27E02146284600F025FC8B
:1037000022E021E020E0284600F0E1FB284600F01E
:10371000B9FB19E0284600F0BFFB10B90020BDE856
:10372000F081284600F0D3FB0EE02146284600F049
:10373000B3FC09E06879207006E06878207003E047
:1037400002E001E00120EAE700BF0120E7E72DE900
:10375000F04180460E4617461C4675683B2F1CD02C
:103760000EDC152F31D006DC0A2F25D00B2F24D0EC
:10377000142F44D122E0172F32D0322F3FD116E040
:10378000462F32D004DC3C2F35D03D2F37D133E0EB
:10379000472F2DD0482F32D12FE02146284600F068
:1037A00087FC18B12146284600F006FC27E0214698
:1037B000284600F032FC22E021E020E0284600F01C
:1037C0005FFC284600F05EFB19E0284600F064FB31
:1037D00010B90020BDE8F081284600F051FC0EE051
:1037E0002146284600F058FC09E06879207006E080
:1037F0006878207003E002E001E00120EAE700BF02
:103800000120E7E72DE9F04107460D4616469846A8
:10381000102E58D004DC0A2E07D00B2E62D10FE0F8
:10382000112E58D0152E5DD10BE0022229463846C4
:10383000FFF719FD2F4A29463846FFF747FE51E0AA
:1038400050E06C682C4A29463846FFF73FFE207945
:10385000B02141EA4000C2B229463846FFF729FEAE
:10386000012229463846FFF785FD62792946384608
:10387000A368FFF78AFE002229463846FFF787FD36
:103880001D4A29463846FFF721FE2079012101EB28
:103890004000C0B240F0B00229463846FFF709FEAA
:1038A000012229463846FFF765FD6179A068431873
:1038B0000A4629463846FFF768FE00222946384660
:1038C000FFF765FD0EE00D4A29463846FFF7FEFD7D
:1038D0000120BDE8F0810A4A29463846FFF7F6FD87
:1038E0000120F6E700BF4346324629463846FFF737
:1038F000D3FEEEE792410008E5410008ED410008E3
:10390000F64100082DE9F04105460C46164698465A
:10391000102E37D004DC0A2E07D00B2E40D10FE03A
:10392000112E36D0152E3BD10BE00222214628461F
:10393000FFF799FC1E4A21462846FFF7C7FD2FE0F6
:103940002EE067681B4A21462846FFF7BFFD3879FD
:1039500040F0B00221462846FFF7ABFD0122214688
:103960002846FFF707FD22462946384600F0DFFBD0
:1039700010B90020BDE8F081002221462846FFF75B
:1039800006FD0DE00C4A21462846FFF79FFD012069
:10399000F0E70A4A21462846FFF798FD0120E9E7AB
:1039A00000BF4346324621462846FFF7D0FEE1E7F6
:1039B00092410008E5410008ED410008F641000889
:1039C0002DE9F04107460D4616469846102E58D070
:1039D00004DC0A2E07D00B2E62D10FE0112E58D036
:1039E000152E5DD10BE0022229463846FFF73BFC3D
:1039F0002F4A29463846FFF769FD51E050E06C68D0
:103A00002C4A29463846FFF761FD2079B02141EA6A
:103A10004000C2B229463846FFF74BFD0122294635
:103A20003846FFF7A7FC627929463846A368FFF7B6
:103A3000ACFD002229463846FFF7A9FC1D4A29465D
:103A40003846FFF743FD2079012101EB4000C0B269
:103A500040F0B00229463846FFF72BFD01222946E7
:103A60003846FFF787FC6179A06843180A46294663
:103A70003846FFF78AFD002229463846FFF787FCC3
:103A80000EE00D4A29463846FFF720FD0120BDE82B
:103A9000F0810A4A29463846FFF718FD0120F6E76B
:103AA00000BF4346324629463846FFF7F5FDEEE7AC
:103AB00092410008DD410008ED410008F641000890
:103AC0002DE9F04105460C4616469846102E37D093
:103AD00004DC0A2E07D00B2E40D10FE0112E36D079
:103AE000152E3BD10BE0022221462846FFF7BBFBF7
:103AF0001E4A21462846FFF7E9FC2FE02EE06768C2
:103B00001B4A21462846FFF7E1FC387940F0B00215
:103B100021462846FFF7CDFC012221462846FFF723
:103B200029FC22462946384600F001FB10B9002046
:103B3000BDE8F081002221462846FFF728FC0DE071
:103B40000C4A21462846FFF7C1FC0120F0E70A4A4B
:103B500021462846FFF7BAFC0120E9E700BF4346AB
:103B6000324621462846FFF7F2FDE1E76C410008A6
:103B7000DD410008ED410008F64100082DE9F04163
:103B800005460C4616469846102E37D004DC0A2E01
:103B900007D00B2E40D10FE0112E36D0152E3BD181
:103BA0000BE0022221462846FFF75DFB1E4A214614
:103BB0002846FFF78BFC2FE02EE067681B4A214662
:103BC0002846FFF783FC387940F0B00221462846AA
:103BD000FFF76FFC012221462846FFF7CBFB224668
:103BE0002946384600F0A3FA10B90020BDE8F0815C
:103BF000002221462846FFF7CAFB0DE00C4A214669
:103C00002846FFF763FC0120F0E70A4A21462846D0
:103C1000FFF75CFC0120E9E700BF4346324621463E
:103C20002846FFF794FDE1E792410008DD410008D6
:103C3000ED410008F64100082DE9FF4F83B004462E
:103C40000F46164620460699FFF789FA009000981D
:103C500018B9002007B0BDE8F08FA068009900F007
:103C6000B1F88246E57F94F82080607F381AC7B2A9
:103C7000A07F3044C6B2701CC6B2681E381AC1B2EA
:103C80002B4632462046CDF80080FFF71CFB10B9CA
:103C900094F91C00DEE7E81DC5B22846E91705EBDC
:103CA0005171CD10B14609EB080000F0FF09A9F1F0
:103CB000010000F0FF094FF0000B21E00197002008
:103CC000029012E09AF8000002234A460090204633
:103CD0000199FFF7CDF90AF1010A01980838C0B23D
:103CE00001900298401CC0B202900298A842E9DB01
:103CF000A9F1010000F0FF090BF1010000F0FF0B3A
:103D0000C345DBDB94F91C00A4E710B5044605218C
:103D1000204600F06AF810BD10B504460621204682
:103D200000F067F810BD10B504460821204600F0E9
:103D300060F810BD10B504460D21204600F055F87E
:103D400040B210BD10B504460E21204600F04DF8DB
:103D500040B210BD10B504460B21204600F045F8D6
:103D600010BD10B50446204600F025F820B101280A
:103D700004D0022806D103E0062010BD0320FCE792
:103D80000620FAE70320F8E710B504460A2120468A
:103D900000F02BF810BD10B504460F21204600F0AE
:103DA00024F840B210BD10B504461021204600F0A2
:103DB0001CF840B210BD10B504460021204600F0AA
:103DC00014F810BD70B505460C462846FFF7C9FF2C
:103DD000204470BD10B504460C21204600F005F8C3
:103DE00040B210BD01460020704702460A441078D8
:103DF000704702460A441078521C4FF6FF7303EADC
:103E000000201378034498B27047000010B50446B0
:103E10000020A060E0606074012020742220A07463
:103E20000020A06101212046FFF7BEFA2046FFF7DF
:103E3000CDFA012004F8280F00206070A070402007
:103E4000E070002020710248E060283C10BD0000B6
:103E50004541000810B504468A4209DCA34201DB53
:103E6000012010BD9A4201DD0120FAE70020F8E7A9
:103E7000A34205DB9A4201DD0120F2E70020F0E7D2
:103E80000020EEE7002181700178C170C178491EE1
:103E9000C170002101717047014688780B78184481
:103EA000887088784B78984201DB00207047087949
:103EB000401C0871CA7808781044C2B24878904211
:103EC00002DC4A78501EC2B2CA700120EEE70146F9
:103ED000886802464B7902EB430200BF002300F8DA
:103EE000013B9042FAD170472DE9F04180460C46E3
:103EF000A57800260027E07830B1012807D00228F5
:103F000008D003280CD108E0701CC6B208E0781C69
:103F1000C7B205E0701EC6B202E0781EC7B200BF8D
:103F200000BF00BF05F0800018B12146404600F0F8
:103F30000CF820783044207060783844607068064F
:103F4000050E002DEED1BDE8F08130B505460C46DA
:103F50006078A978884200DA30BD6078E9788842D4
:103F600000DDF9E720786979884200DBF4E72379FE
:103F700062782178284600F002F800BFECE770B5BF
:103F800004460D46A068A678961BF2B2082A03DB09
:103F90006679304402F00702012101FA02F6F1B21B
:103FA00028441BB106780E43067004E081F0FF013F
:103FB00006780E40067070BD2DE9F04180460C4633
:103FC000A57800260027E07830B1012807D0022824
:103FD00008D003280CD108E0701CC6B208E0781C99
:103FE000C7B205E0701EC6B202E0781EC7B200BFBD
:103FF00000BF00BF05F0800018B12146404600F028
:104000000CF820783044207060783844607068067E
:10401000050E002DEED1BDE8F08130B505460C4609
:104020006078A978884200DA30BD6078E978884203
:1040300000DDF9E720786979884200DBF4E723792D
:1040400062782178284600F002F800BFECE770B5EE
:1040500004460D46A068A678961BF2B2012102F034
:10406000070201FA02F6F1B228441BB106780E43AA
:10407000067004E081F0FF0106780E40067070BD06
:104080000146886802464B791A4400BF002300F8B5
:10409000013B9042FAD1704700220A7082784A7040
:1040A00042798A708A78521E8A70C278CA707047C4
:1040B000F0B507460C4665782E46E07830B1012809
:1040C00005D0022807D003280AD105E008E006F150
:1040D0000800C6B204E003E0A5F10800C5B200BFC5
:1040E00000BF32462946384600F001F8F0BDF0B571
:1040F00003460C46D878A04201DB012000E00020F6
:1041000001469878904201DC012000E0002005463D
:10411000944201DD012000E0002006460F462940C0
:1041200035403E402943314301F00100F0BD70B5F8
:1041300004460D461646627931462846A368FFF7C5
:1041400024FA70BD7047FFD0FFE0FFC1FFD1AED5AC
:1041500080A83FD300408D102000A1C8DA12819FB3
:10416000D922DB402EA4A6AFFFD0FFFEFFD0FFE098
:10417000FFC1FFD1AED580A83FD300408D142000F1
:10418000A1C8DA1281CFD9F1DB402EA4A6AFFFD0AF
:10419000FFFEFFD0FFE0FFC1FFD1AED580A83FD327
:1041A00000408D142002A1C8DA1281CFD9F1DB4082
:1041B0002EA4A6AFFFD0FFFEFFD0FFE0FFC1FFD1CE
:1041C000AED580A83FD300408D10A1C8DA12819FE0
:1041D000D922DB402200A4A6AFFFD0FFFEFFE0FF04
:1041E000D11000FFFEFFE0FFD11002FFFEFFE0FF55
:1041F000D1AEFFD0FFFEFFE0FFD1AFFF32FFD0FF17
:10420000FE00050900FE06017E02F820FFFE08FE02
:1042100007FE000000050000010606050200808080
:1042200080800080030202050105A0A005050505A8
:10423000000150F850F8500508080500FF2078A04C
:104240007028A8702005060605000078A8B068A8A8
:104250009004060605000040A04050A05001020254
:1042600005020480800308080501FF20408080804B
:104270008040200308080500FF80402020202040C7
:1042800080040505050001409060902003030305AC
:10429000000140E0400203030500FE4040800201AF
:1042A00001050102C00101010502008004080805A2
:1042B00000FE10102020404080800406060500000B
:1042C0006090B0D0906003060605010040C04040F9
:1042D00040E00406060500006090102040F004064F
:1042E000060500006090201090600406060500009E
:1042F0002060A0F02070040606050000F080E010A9
:1043000090600406060500006080E090906004065E
:1043100006050000F010204040400406060500009D
:1043200060906090906004060605000060909070B8
:1043300010600104040502008000008002060605EA
:1043400000FE4000004040800305050501002040BC
:10435000804020040303050001F000F0030505057B
:104360000100804020408004060605000060902087
:104370004000400406060500006090B0B080700464
:104380000606050000609090F09090040606050077
:1043900000E090E09090E004060605000060908048
:1043A000809060040606050000E090909090E00484
:1043B0000606050000F080E08080F0040606050097
:1043C00000F080E080808004060605000060908098
:1043D000B090600406060500009090F09090900365
:1043E0000606050100E040404040E00406060500E6
:1043F0000010101010906004060605000090A0C088
:10440000C0A0900406060500008080808080F00433
:10441000060605000090F0F0909090040606050056
:104420000090D0B090909004060605000060909037
:10443000909060040606050000E09090E080800403
:1044400007070500FF60909090B060100406060515
:104450000000E09090E09090040606050000609057
:1044600060109060030606050100E04040404040B7
:1044700004060605000090909090906004060605E2
:10448000000090909090A0400406060500009090D7
:1044900090F0F09004060605000090906060909007
:1044A0000406060500009090A04040400406060562
:1044B0000000F010204080F00208080502FFC080D4
:1044C0008080808080C00408080501FE8080404014
:1044D000202010100208080501FFC0404040404065
:1044E00040C003020205010440A00501010500FED1
:1044F000F802020205010580400404040500007072
:1045000090B0500406060500008080E09090E00422
:104510000404050000609080700406060500001089
:10452000107090907004040405000060F080700327
:1045300006060501002040E0404040040606050054
:10454000FE7090907010600406060500008080E008
:104550009090900306060501004000C04040E00234
:1045600008080501FE4000C04040404080040606A7
:104570000500008080A0C0A090030606050100C0D1
:1045800040404040E0050404050000F0A8A8A8044D
:104590000404050000A0D09090040404050000600D
:1045A0009090600406060500FEE09090E080800494
:1045B00006060500FE7090907010100404040500BB
:1045C00000A0D0808004040405000070E010E00327
:1045D00006060501004040E04040200404040500B8
:1045E000009090B0500404040500009090A0400595
:1045F0000404050000A8A8A85004040405000090C5
:104600006060900406060500FE90909070106004B3
:104610000404050000F02040F00309090501FE2014
:1046200040404080404040200108080502FF808053
:104630008080808080800309090501FE8040404021
:10464000204040408004020205000250A00000000B
:104650000500000000000500000000000500000249
:1046600003030500FF4040800309090501FE2040C7
:1046700040E040404040800403030500FF5050A04C
:10468000050101050000A803050505010140E04002
:10469000404003050505010140E040E040030202FF
:1046A00005010540A005060605000078D0E070F879
:1046B00070040808050000502070806010906002AF
:1046C000030305000040804004060605000070A0BA
:1046D000B0A0A07000000005000000000005000070
:1046E00000000005000000000005000002030305B3
:1046F000020340808002030305010340408004035D
:104700000305000350A0A00403030500035050A0BC
:1047100004040405000160F0F060020101050102DB
:10472000C0050101050002F804020205000550A0C1
:10473000050303050003F858580407070500005057
:10474000200070E010E002030305000080408004B8
:10475000040405000070B0A0500000000500000037
:10476000000005000004080805000050009090A01B
:1047700040404000000005000001060605020080E0
:1047800000808080800406060500FF2060B0C070B5
:10479000400406060500006080C08090E004040428
:1047A00005000090606090030606050100A040E04F
:1047B00040E0400108080502FF8080800000808002
:1047C000800408080500FF609040A050209060021F
:1047D0000101050105C0040606050000C020D0D077
:1047E00020C003050505010260A06000E005030389
:1047F000050000489048040202050001F010030182
:1048000001050002E0040505050001C020D0D0B07C
:10481000020101050105C003030305010340A04097
:1048200003040405000040E040E002030305010426
:104830008040C0020303050104C040C0020101051D
:104840000205C00405050500FFA0A0A0D080040655
:104850000605000070B0B0703030010101050202A1
:10486000800202020501FEC0C0020303050104C06C
:10487000404003050505010240A04000E005030398
:10488000050000904890050707050000C04850202B
:10489000489808050707050000C0485020508818B0
:1048A000050707050000C048D02048980804060600
:1048B000050000200020409060040808050000402A
:1048C00020609090F090900408080500002040605F
:1048D0009090F0909004080805000020500060902F
:1048E000F0909004080805000050A0006090F0903F
:1048F000900408080500005000609090F09090042B
:1049000008080500002050206090F09090040606F2
:1049100005000070A0F0A0A0B00408080500FE602B
:10492000908080906020400408080500004020F03E
:1049300080E08080F00408080500002040F080E05E
:104940008080F00408080500002050F080E080809E
:10495000F00408080500005000F080E08080F003BB
:1049600008080501008040E040404040E00308089E
:104970000501002040E040404040E00308080501F8
:104980000040A000E0404040E0030808050100A00E
:1049900000E040404040E00406060500006050D0C2
:1049A00050506004080805000050A090D0B09090CE
:1049B00090040808050000402060909090906004EA
:1049C000080805000020406090909090600408085E
:1049D00005000020500060909090600408080500D9
:1049E0000050A000609090906004080805000050FE
:1049F00000609090909060030303050001A040A028
:104A00000406060500006090B0D090600408080518
:104A100000004020909090909060040808050000ED
:104A2000204090909090906004080805000020506D
:104A3000009090909060040808050000500090904D
:104A4000909090600408080500002040009090A01D
:104A5000404004060605000080E090E080800407E6
:104A6000070500FF6090A0A090A080040707050044
:104A7000004020007090B05004070705000020405F
:104A8000007090B05004070705000020500070909F
:104A9000B05004070705000050A0007090B050040B
:104AA000060605000050007090B05004070705008E
:104AB000002050207090B05004040405000070B035
:104AC000A0700406060500FE609080702040040778
:104AD0000705000040200060F08070040707050013
:104AE0000020400060F0807004070705000020509F
:104AF0000060F08070040606050000500060F08041
:104B000070030707050100804000C04040E0030734
:104B100007050100408000C04040E0030707050191
:104B20000040A000C04040E0030606050100A000D0
:104B3000C04040E0040707050000C0C0207090900E
:104B40006004070705000050A000A0D09090040763
:104B500007050000402000609090600407070500F2
:104B6000002040006090906004070705000020507E
:104B7000006090906004070705000050A00060905E
:104B800090600406060500005000609090600305E8
:104B9000050500004000E00040040404050000603A
:104BA000B0D0600407070500004020009090B0508E
:104BB0000407070500002040009090B0500407074C
:104BC0000500002050009090B0500406060500003B
:104BD00050009090B0500409090500FE102000908C
:104BE00090907010600408080500FE8080E09090AE
:104BF000E080800408080500FE500090909070103E
:104C00006000050900FE06017E02F8207FFE07FE17
:104C100007FE000000050000010606050200808076
:104C200080800080030202050105A0A0050505059E
:104C3000000150F850F8500508080500FF2078A042
:104C40007028A8702005060605000078A8B068A89E
:104C50009004060605000040A04050A0500102024A
:104C600005020480800308080501FF204080808041
:104C70008040200308080500FF80402020202040BD
:104C800080040505050001409060902003030305A2
:104C9000000140E0400203030500FE4040800201A5
:104CA00001050102C0010101050200800408080598
:104CB00000FE101020204040808004060605000001
:104CC0006090B0D0906003060605010040C04040EF
:104CD00040E00406060500006090102040F0040645
:104CE0000605000060902010906004060605000094
:104CF0002060A0F02070040606050000F080E0109F
:104D000090600406060500006080E0909060040654
:104D100006050000F0102040404004060605000093
:104D200060906090906004060605000060909070AE
:104D300010600104040502008000008002060605E0
:104D400000FE4000004040800305050501002040B2
:104D5000804020040303050001F000F00305050571
:104D6000010080402040800406060500006090207D
:104D70004000400406060500006090B0B08070045A
:104D80000606050000609090F0909004060605006D
:104D900000E090E09090E00406060500006090803E
:104DA000809060040606050000E090909090E0047A
:104DB0000606050000F080E08080F004060605008D
:104DC00000F080E08080800406060500006090808E
:104DD000B090600406060500009090F0909090035B
:104DE0000606050100E040404040E00406060500DC
:104DF0000010101010906004060605000090A0C07E
:104E0000C0A0900406060500008080808080F00429
:104E1000060605000090F0F090909004060605004C
:104E20000090D0B09090900406060500006090902D
:104E3000909060040606050000E09090E0808004F9
:104E400007070500FF60909090B06010040606050B
:104E50000000E09090E0909004060605000060904D
:104E600060109060030606050100E04040404040AD
:104E700004060605000090909090906004060605D8
:104E8000000090909090A0400406060500009090CD
:104E900090F0F090040606050000909060609090FD
:104EA0000406060500009090A04040400406060558
:104EB0000000F010204080F00208080502FFC080CA
:104EC0008080808080C00408080501FE808040400A
:104ED000202010100208080501FFC040404040405B
:104EE00040C003020205010440A00501010500FEC7
:104EF000F802020205010580400404040500007068
:104F000090B0500406060500008080E09090E00418
:104F1000040405000060908070040606050000107F
:104F2000107090907004040405000060F08070031D
:104F300006060501002040E040404004060605004A
:104F4000FE7090907010600406060500008080E0FE
:104F50009090900306060501004000C04040E0022A
:104F600008080501FE4000C040404040800406069D
:104F70000500008080A0C0A090030606050100C0C7
:104F800040404040E0050404050000F0A8A8A80443
:104F90000404050000A0D090900404040500006003
:104FA0009090600406060500FEE09090E08080048A
:104FB00006060500FE7090907010100404040500B1
:104FC00000A0D0808004040405000070E010E0031D
:104FD00006060501004040E04040200404040500AE
:104FE000009090B0500404040500009090A040058B
:104FF0000404050000A8A8A85004040405000090BB
:105000006060900406060500FE90909070106004A9
:105010000404050000F02040F00309090501FE200A
:1050200040404080404040200108080502FF808049
:105030008080808080800309090501FE8040404017
:10504000204040408004020205000250A000000001
:10505000050000003F6E6F64653D736F6C61727098
:1050600076747861632666756C6C6A736F6E3D7BCF
:10507000225541435F56223A25332E31662C224970
:10508000315F41223A25312E33662C2249325F416D
:10509000223A25312E33662C2250315F57223A2591
:1050A000642C2250325F57223A25642C22665F48D6
:1050B0007A223A25322E32662C22504631223A2567
:1050C000322E32662C22504632223A25322E326659
:1050D0007D0A0000F450000800000020B801000024
:1050E000F809000884510008B8010020902E000043
:1050F000C81C0008412D0102030404000920060712
:1051000008090204060805117265710A84A24A049E
:10511000694C011C330840228013C8251420C13A71
:10512000230878142075366A08184B482618DA9038
:10513000185AC818EAA830122714207D3BEB08C083
:10514000305918EAD8304A28185AF0186A1030191D
:10515000181BC139284A011809160C796012291B3D
:10516000200518DA38184B482A18EA503059185ACE
:10517000681869781B482B1812385B0880180916C4
:045180000C8100009E
:04000005080000ED02
:00000001FF
